:100000000C94FC000C94831B0C945C1B0C9424013A
:100010000C9424010C9424010C9424010C942401CC
:100020000C9424010C9424010C9424010C946C274E
:100030000C9424010C9424010C9424010C942401AC
:100040000C94121B0C9424010C94051A0C94DF19C7
:100050000C9424010C9424010C9424010C9424018C
:100060000C9475200C942401084AD73B3BCE016EBA
:1000700084BCBFFDC12F3D6C74319ABD56833DDAFF
:100080003D00C77F11BED9E4BB4C3E916BAAAABE0E
:10009000000000803F0000407A10F35A00A0724E2A
:1000A00018090010A5D4E80000E87648170000E41D
:1000B0000B54020000CA9A3B000000E1F505000065
:1000C00080969800000040420F000000A0860100CA
:1000D0000000102700000000E8030000000064009A
:1000E000000000000A000000000001000000000005
:1000F0002C76D888DC674F0823DFC1DFAE59E1B129
:10010000B796E5E3E453C63AE651997696E8E6C237
:100110008426EB898C9B62ED407C6FFCEFBC9C9F3E
:1001200040F2BAA56FA5F490055A2AF75C936B6C60
:10013000F9676DC11BFCE0E40D47FEF520E6B50054
:10014000D0ED902E0300943577050080841E0800C2
:1001500000204E0A000000C80C333333330F986E72
:1001600012831141EF8D2114893BE65516CFFEE62F
:10017000DB18D1844B381BF77C1D901DA4BBE424F5
:10018000203284725E228100C9F124ECA1E53D2772
:1001900000000000240027002A00000000002500C5
:1001A00028002B00040404040404040402020202D4
:1001B000020203030303030301020408102040802A
:1001C00001020408102001020408102000000008A9
:1001D000000201000003040700000000000000000E
:1001E00072740092740048940078C400000000000B
:1001F000230026002900482E11241FBECFEFD8E08F
:10020000DEBFCDBF13E0A0E0B1E0E4ECF3E702C055
:1002100005900D92A830B107D9F726E0A8E0B3E029
:1002200001C01D92A53CB207E1F710E0CCEFD0E091
:1002300004C02197FE010E94A637CB3FD107C9F722
:100240000E94352C0C94E0390C9400002F923F92C0
:100250004F925F926F927F928F929F92AF92BF92D6
:10026000CF92DF92EF92FF920F931F93CF93DF9382
:10027000CDB7DEB7C75DD1090FB6F894DEBF0FBEAC
:10028000CDBF0E94061B00913603109137032091C9
:100290003803309139030A561F4F2F4F3F4F06172F
:1002A00017072807390760F40E9422230E94061BC3
:1002B0006093360370933703809338039093390328
:1002C0000E94061B00913A0310913B0320913C03CE
:1002D00030913D030E5C1F4F2F4F3F4F06171707FE
:1002E0002807390758F4A8950E94061B60933A0323
:1002F00070933B0380933C0390933D030E94061B45
:1003000000912703109128032091290330912A039B
:100310000F5F1F4F2F4F3F4F06171707280739074B
:1003200008F004C382E40E94512A8DEF90E00E94FD
:10033000EC290E944E2A62E070E082E490E00E9484
:10034000DD2A87ED94E00E94C71C00E010E0182F22
:1003500087ED94E00E94C71C802B912BCC55DF4F7A
:1003600099838883C45AD04001978F30974258F0C0
:100370000E94061B60932703709328038093290330
:1003800090932A03D3C282E40E94512A8FEF90E017
:100390000E94EC290E944E2A212C312CE3E0CE2E23
:1003A000D12CE12CF12C61E070E082E490E00E941D
:1003B000DD2A87ED94E00E94C71C843271F421E0AD
:1003C00030E03093FB042093FA048093FC041092F5
:1003D000F80481E08093F9049BC20091FA04109123
:1003E000FB048D3009F074C2C80101969093FB04A0
:1003F0008093FA040D511B4FD80159961C9246E088
:1004000050E06AE871E08CEF94E00E94C339892BD8
:1004100009F099C1F80186898A3209F079C2878981
:100420000E945A2BB82ED80158968C910E945A2BB4
:10043000B0E1BB9E800D11249091F804981368C21E
:1004400081E08093F4046CE270E08CEF94E00E9411
:10045000B1398C010F5F1F4F62E0C8010E941E2B53
:100460006093740570937505809376059093770576
:100470006CE270E0C8010E94B1395C018C010F5F31
:100480001F4F64E0C8010E941E2BDC01CB010196C6
:10049000A11DB11D8093780590937905A0937A05ED
:1004A000B0937B0562E0C8010E94692B9B01AC01FF
:1004B00064E0C5010396C952DF4F2883C75DD04071
:1004C000CC52DF4F3883C45DD040CB52DF4F4883DE
:1004D000C55DD040CA52DF4F5883C65DD0400E94F0
:1004E0001E2B2B013C01C952DF4F2881C75DD04034
:1004F000CC52DF4F3881C45DD040CB52DF4F4881B2
:10050000C55DD040CA52DF4F5881C65DD04060E81B
:1005100076E988E990E00E942C364B015C01A2E369
:10052000B0E0A30192010E948133A70196010E94CD
:100530006233820E931EA41EB51E8092780590929F
:100540007905A0927A05B0927B056CE270E0C80153
:100550000E94B139FC0101962181233581F4B094C8
:10056000A09490948094811C911CA11CB11C809239
:10057000780590927905A0927A05B0927B056CE29D
:1005800070E00E94B1395C018C010F5F1F4F64E085
:10059000C8010E941E2BDC01CB010196A11DB11DDB
:1005A00080937C0590937D05A0937E05B0937F0595
:1005B00063E0C8010E94692B9B01AC0164E0C501A6
:1005C0000496C952DF4F2883C75DD040CC52DF4F1D
:1005D0003883C45DD040CB52DF4F4883C55DD040E7
:1005E000CA52DF4F5883C65DD0400E941E2B2B019C
:1005F0003C01C952DF4F2881C75DD040CC52DF4F4C
:100600003881C45DD040CB52DF4F4881C55DD040BA
:10061000CA52DF4F5881C65DD04060E876E988E96C
:1006200090E00E942C364B015C01A2E3B0E0A301F4
:1006300092010E948133A70196010E946233820ECB
:10064000931EA41EB51E80927C0590927D05A092FB
:100650007E05B0927F056CE270E0C8010E94B1395E
:10066000FC0101962181273581F4B094A0949094E7
:100670008094811C911CA11CB11C80927C059092DD
:100680007D05A0927E05B0927F056CE270E00E942D
:10069000B1398C010F5F1F4F61E0C8010E94692BC7
:1006A000962E6093F6046CE270E0C8010E94B139A6
:1006B0008C010F5F1F4F62E0C8010E94692B5B0134
:1006C00070938F0560938E056CE270E0C8010E9404
:1006D000B13901963C0161E00E941E2B8B017093A1
:1006E0008505609384056CE270E0C3010E94B13916
:1006F00061E001960E941E2B2AE030E040E050E0CD
:100700000E946233209380053093810540938205D7
:1007100050938305911003C01092F704F9C0E5E0EF
:10072000AE16B10410F481E009C00F31110510F0CC
:1007300082E004C00A31110520F083E08093F704C1
:10074000E7C084E0FBCF46E050E061E971E08CEF68
:1007500094E00E94C339892B09F05CC0D8015696F9
:100760008C9156978A3209F0D3C057968C910E948B
:100770005A2BB82EF801808D0E945A2BF0E1BF9EB3
:10078000800D11249091F8049813C2C06CE270E0BF
:100790008CEF94E00E94B1398C010F5F1F4F62E033
:1007A000C8010E941E2B70938905609388056CE236
:1007B00070E0C8010E94B1396CE270E001960E94BD
:1007C000B1396CE270E001960E94B1396CE270E0E0
:1007D00001960E94B1396CE270E001960E94B13935
:1007E0006CE270E001960E94B13962E001960E94CD
:1007F0001E2B9B01AC01AAE0B0E00E94813324E2F1
:1008000030E040E050E00E9462333093870520934F
:1008100086057EC046E050E068E971E08CEF94E028
:100820000E94C339892B09F056C0D80156968C9185
:1008300056978A3209F06CC057968C910E945A2BB9
:10084000B82EF801808D0E945A2BF0E1BF9E800DDA
:1008500011249091F80498135BC06CE270E08CEF67
:1008600094E00E94B1396CE270E001960E94B139C7
:100870006CE270E001960E94B1396CE270E0019682
:100880000E94B1396CE270E001960E94B1396CE2CD
:1008900070E001960E94B1396CE270E001960E940E
:1008A000B1396CE270E001960E94B1396CE270E0FF
:1008B00001960E94B13961E001960E941E2B60935F
:1008C0008A0570938B0580938C0590938D0520C0CD
:1008D000073711052CF01092FB041092FA0418C08F
:1008E0008A3211F41092F90498012F5F3F4F309330
:1008F000FB042093FA04F801ED51FB4F818F909196
:10090000F904992329F09091F80489278093F80439
:100910002FEF221A320ACC55DF4F88809980C45AB3
:10092000D0402814390409F03ECD22CD0E94061B88
:100930000091230310912403209125033091260375
:100940000E5C1F4F2F4F3F4F061717072807390719
:1009500010F00C94DC1268EB7BE085E995E00E94D6
:10096000E326882311F40C94BE1260E080E10E941B
:10097000601A85E080930A034AE053E06DE973E072
:1009800085E995E00E94381E882311F40C94D21258
:100990008091A305082E000C990B90930903809376
:1009A00008036FE971E08E010F5F1F4FC8010E94BD
:1009B000CA1960E0C8010E943A25C8010E94E018E7
:1009C0004AE060919D03C8010E949D1961E0C80141
:1009D0000E943A25C8010E94E01880919D0386304C
:1009E00011F40C94700D98F4833009F405C738F4B1
:1009F000813031F1823009F4E5C60C94B5128430AF
:100A000009F417C7853009F4E3C70C94B5128A308E
:100A100011F40C94E70F50F4873011F40C94E90DA5
:100A2000883011F40C94080F0C94B5128B3011F42B
:100A30000C9460118F3F11F40C94BB110C94B512FF
:100A400080E2EAE1F4E0DF011D928A95E9F762EFC6
:100A500072E0CE018B569F4F0E94CA1986E70E9412
:100A60001923882309F4ABC668E886E70E94D72AD1
:100A70007C016AE886E70E94D72AC755DF4F998331
:100A80008883C95AD0406CE886E70E94D72A6C0157
:100A90006EE886E70E94D72ACD53DF4F998388837B
:100AA000C35CD04060E986E70E94D72AC353DF4F7A
:100AB0008883CD5CD040C354DF4F9883CD5BD0405A
:100AC00062E986E70E94D72AC253DF4F8883CE5C53
:100AD000D040C254DF4F9883CE5BD04064E986E7B4
:100AE0000E94D72AC153DF4F8883CF5CD040C154C6
:100AF000DF4F9883CF5BD04066E986E70E94D72A14
:100B0000C053DF4F8883C05DD040CB54DF4F988304
:100B1000C55BD04068E986E70E94D72ACC54DF4FF6
:100B20008883C45BD040CD54DF4F9883C35BD040F3
:100B30006AE986E70E94D72ACF52DF4F8883C15DDA
:100B4000D040C054DF4F9883C05CD0406CE986E74A
:100B50000E94D72ACE52DF4F8883C25DD040CF5348
:100B6000DF4F9883C15CD0406EE986E70E94D72AA8
:100B7000CD52DF4F8883C35DD040CE53DF4F988383
:100B8000C25CD04061EA86E70E94972A082F61EE96
:100B900086E70E94D72A1C0163EE86E70E94972A07
:100BA000182F64EE86E70E94972A982E65EE86E756
:100BB0000E94972A8F70B0E19B9E900111244901F9
:100BC000882ACC55DF4F99828882C45AD04066EE7D
:100BD00086E70E94972A982E65EE86E70E94972A5C
:100BE000482E512CC20124E0959587952A95E1F76E
:100BF00020E1929E200111244C0184289528C5559E
:100C0000DF4F99828882CB5AD04067EE86E70E94F8
:100C1000972AC855DF4F8883C85AD04041E062EF19
:100C200086E70E94BD2A4FE364EF86E70E94BD2A53
:100C30006AEF86E70E94972AB82E6BEF86E70E943C
:100C4000972A90E0A0E0B0E034E0880F991FAA1F37
:100C5000BB1F3A95D1F74B2D50E060E070E0ECE01F
:100C6000440F551F661F771FEA95D1F74C015D01B0
:100C7000842A952AA62AB72A6CEF86E70E94972A2B
:100C8000C701A0E0B0E0B501A401F4E07595679557
:100C900057954795FA95D1F72A013B01481A590A09
:100CA0006A0A7B0AB501A40123E0759567955795FB
:100CB00047952A95D1F7880F991FAA1FBB1F9A0144
:100CC000AB01281B390B4A0B5B0BC755DF4FA881C3
:100CD000B981C95AD0400E948C334B015C014BE072
:100CE000B594A794979487944A95D1F7A30192015C
:100CF000C301B2010E942C369B01AC016CE05595FA
:100D00004795379527956A95D1F7D6010E948C3380
:100D1000DC01CB017EE0B595A795979587957A95EF
:100D2000D1F7880E991EAA1EBB1EA5E0B0E0A50152
:100D300094010E948133DC01CB0180589F4FAF4F5B
:100D4000BF4F692F7A2F8B2F992787FD9A950E9485
:100D50002F3220E030E048EC52E40E949834CB532C
:100D6000DF4F688379838A839B83C55CD0406DEFB6
:100D700086E70E94652A240135012CE2521A21E0FF
:100D8000620A71086C01E12CF12CFEE0CC0CDD1C38
:100D9000EE1CFF1CFA95D1F7CC55DF4F8881998165
:100DA000C45AD040AC01990F660B770BA4E1440FF5
:100DB000551F661F771FAA95D1F7C41AD50AE60AF0
:100DC000F70AC555DF4FA881B981CB5AD040A3019E
:100DD00092010E948C33C61AD70AE80AF90A90E4F5
:100DE000D90EE11CF11CBFE0F594E794D794C794A9
:100DF000BA95D1F7C855DF4FE881C85AD040AE2F19
:100E0000EE0FBB0B0E948C339B01AC018AE0559521
:100E10004795379527958A95D1F7CC55DF4F28838D
:100E200039834A835B83C45AD040A12FB0E0A30129
:100E300092010E948133DC01CB012BE0B595A7958F
:100E4000979587952A95D1F7BC01CD0170588F4FA2
:100E50009F4FCC55DF4F288139814A815B81C45A2D
:100E6000D0400E942C36DC01CB013AE0B595A79525
:100E7000979587953A95D1F79C01AD01405E5F4FFC
:100E8000D1010E948C33DC01CB01905EAF4FBF4F8C
:100E9000BC01CD014EE095958795779567954A956C
:100EA000D1F7A70196010E942C366B017C015FE00F
:100EB00095958795779567955A95D1F79B01AC01E4
:100EC0000E942C369B01AC0167E0559547953795FC
:100ED00027956A95D1F7A02FB0E00E948133DC01FD
:100EE000CB0174E0B595A795979587957A95D1F73D
:100EF000C81AD90AEA0AFB0AF7FE03C0C12CD12C92
:100F00007601D701C60131E0C316D104E10439E10D
:100F1000F30624F080E090E0A0E0B9E1BC01CD014F
:100F20001CE095958795779567951A95D1F70E945E
:100F30002F3220E030E040E85AE30E948E32C7535F
:100F4000DF4F688379838A839B83C95CD04086E7BF
:100F50000E94512A67EF87ED94E00E94131D80E004
:100F60000E94F12963E086E70E945B2A9091AE031C
:100F70008091AF03981799F187ED94E00E94C71C08
:100F80006C01990FEE08FF0844245C2C6D2C7E2C1C
:100F900087ED94E00E94C71C6C01990FEE08FF08D2
:100FA000C428D528E628F72887ED94E00E94C71CBE
:100FB000FE2CED2CDC2CCC24AC01990F660B770BAE
:100FC000D701C601842B952BA62BB72BC555DF4F18
:100FD00088839983AA83BB83CB5AD04008C0C55568
:100FE000DF4F188219821A821B82CB5AD0407501BA
:100FF0006401FF0CCC08DC2C76019401A5016C2D5A
:101000007C2D8C2D9C2D345F414051096109710963
:1010100081099109CC55DF4F2883C45AD040232E33
:101020002A013B014C01A22EB32E6A017B018C01E7
:101030000E945036C855DF4F2883C85AD040C75544
:10104000DF4F3883C95AD040C155DF4F4883CF5A4C
:10105000D040C055DF4F5883C05BD040CF54DF4FE6
:101060006883C15BD040CE54DF4F7883C25BD040F1
:10107000C554DF4F8883CB5BD040C454DF4F988387
:10108000CC5BD040CC54DF4FA880C45BD040CD5463
:10109000DF4F1881C35BD040110F110BCD54DF4FD0
:1010A000B880C35BD040C12ED12EE12EF12E012F8E
:1010B0000E945036CD54DF4F2883C35BD040332E7F
:1010C000CC54DF4F4883C45BD040CA54DF4F5883B1
:1010D000C65BD040C954DF4F6883C75BD040C8545B
:1010E000DF4F7883C85BD040C754DF4F8883C95B2C
:1010F000D040C654DF4F9883CA5BD040C053DF4F07
:10110000A880C05DD040CB54DF4F1881C55BD04074
:10111000110F110BCB54DF4FB880C55BD040C12EEF
:10112000D12EE12EF12E012FCC55DF4F2881C45A4C
:10113000D040322DA201B301C4010E94503601E11A
:101140000E94493759016A017B018C01CD54DF4F60
:101150002881C35BD040332DCC54DF4F4881C45B22
:10116000D040CA54DF4F5881C65BD040C954DF4FCE
:101170006881C75BD040C854DF4F7881C85BD040DE
:10118000C754DF4F8881C95BD040C654DF4F988178
:10119000CA5BD0400E948037CB54DF4F2883C55BA9
:1011A000D040CD54DF4F3883C35BD040CC54DF4FA9
:1011B0004883C45BD040CA54DF4F5883C65BD040DD
:1011C000C954DF4F6883C75BD040C854DF4F788372
:1011D000C85BD040C754DF4F8883C95BD040C6543A
:1011E000DF4F9883CA5BD040C353DF4FA880CD5CEC
:1011F000D040C354DF4F1881CD5BD040110F110B8D
:10120000C354DF4FB880CD5BD040C12ED12EE12E2C
:10121000F12E012FCC55DF4F2881C45AD040322DFA
:10122000A201B301C4010E9450360CE00E9449376C
:1012300019012A013B014C01C253DF4FA880CE5C4B
:10124000D040C254DF4F1881CE5BD040110F110B3C
:10125000C254DF4FB880CE5BD040C12ED12EE12EDC
:10126000F12E012FC855DF4F2881C85AD040C755ED
:10127000DF4F3881C95AD040C155DF4F4881CF5A1E
:10128000D040C055DF4F5881C05BD040CF54DF4FB6
:101290006881C15BD040CE54DF4F7881C25BD040C3
:1012A000C554DF4F8881CB5BD040C454DF4F988159
:1012B000CC5BD0400E94503608E00E94623751015A
:1012C0006201730184010E94803770588F4F9F4FD5
:1012D000CD53DF4FA881B981C35CD0405D01C12CE3
:1012E000D12CE12CF12C00E010E00E945036322E7F
:1012F000232ECC55DF4F4883C45AD040C855DF4F0A
:101300005883C85AD040C755DF4F6883C95AD04068
:10131000C155DF4F7883CF5AD040C055DF4F888307
:10132000C05BD040492EC555DF4F488159816A8145
:101330007B81CB5AD040E4E07595679557954795EA
:10134000EA95D1F780E090E0A0E1B0E0841B950B36
:10135000A60BB70B6C017D01FF0CCC08DC2C7601D1
:101360009C01AD016C2D7C2D8C2D9C2D0FE10E94DC
:10137000493739014A01B62FA72FF82FE92FC1535A
:10138000DF4F2881CF5CD040C154DF4F9881CF5BC5
:10139000D040990F990BC154DF4F3881CF5BD040BB
:1013A000492F592F692F792F892F03E20E9449373E
:1013B00059016A017B018C01CB54DF4F2881C55B49
:1013C000D040CD54DF4F3881C35BD040CC54DF4F89
:1013D0004881C45BD040CA54DF4F5881C65BD040BF
:1013E000C954DF4F6881C75BD040C854DF4F788154
:1013F000C85BD040C754DF4F8881C95BD040C6541A
:10140000DF4F9881CA5BD0400E94803759016A0142
:101410007B018C019301A4016B2F7A2F8F2F9E2FBC
:101420000E948937722E832E942EB52FA62FF72F68
:10143000E82F592E03E00E944937A72CB82CC92C5D
:10144000DB2EEA2EFF2E0E2F152D0E948937590113
:101450006A017B01682E192F03E00E944937062D8F
:101460000E94893703E00E944937A72CB82CC92C69
:10147000DB2EEA2EFF2E0E2F152D0E94893702E05B
:101480000E9449370E2F0E94893701E00E94493798
:101490000E2F0E94893739014A01B62FA72FF82F46
:1014A000E92F232D322DCC55DF4F4881C45AD0402F
:1014B000C855DF4F5881C85AD040C755DF4F6881A3
:1014C000C95AD040C155DF4F7881CF5AD040C0555E
:1014D000DF4F8881C05BD040942D01E20E946237CB
:1014E00059016A017B018C019301A4016B2F7A2FB2
:1014F0008F2F9E2F0E94AB36CC55DF4F2883C45AC6
:10150000D040C555DF4F3883CB5AD040C855DF4F48
:101510004883C85AD040C755DF4F5883C95AD04076
:10152000C155DF4F6883CF5AD040C055DF4F788315
:10153000C05BD040CF54DF4F8883C15BD040CE54D6
:10154000DF4F9883C25BD0400DE00E946237322E9D
:10155000292ECD52DF4F2881C35DD040CE53DF4FBF
:101560009881C25CD040990F990BA32CB32EC42E46
:10157000D52EE62EF72E082F122DCE53DF4F3881B1
:10158000C25CD040492F592F692F792F892F0E9493
:1015900050360E94503609E10E94623759016A01B3
:1015A0007B018C01CC55DF4F2881C45AD040C555F2
:1015B000DF4F3881CB5AD040C855DF4F4881C85AD9
:1015C000D040C755DF4F5881C95AD040C155DF4F71
:1015D0006881CF5AD040C055DF4F7881C05BD04082
:1015E000CF54DF4F8881C15BD040CE54DF4F98810C
:1015F000C25BD0400E94803719012A013B014C0197
:10160000CE52DF4F2881C25DD040CF53DF4F98814B
:10161000C15CD040990F990BCC55DF4FA880C45ABC
:10162000D040C555DF4FB880CB5AD040C855DF4FAA
:10163000C880C85AD040C755DF4FD880C95AD0405B
:10164000C155DF4FE880CF5AD040C055DF4FF880FA
:10165000C05BD040CF54DF4F0881C15BD040CE5437
:10166000DF4F1881C25BD040CF53DF4F3881C15C60
:10167000D040492F592F692F792F892F0E9450363A
:1016800003E10E94623759016A017B018C019101DB
:10169000A201B301C4010E94803708E00E946237B2
:1016A00019012A013B014C016EEA71E0CE018B5613
:1016B0009F4F0E94A91820E030E0A901CB53DF4FD3
:1016C000688179818A819B81C55CD0400E94FD330D
:1016D000AB01BC0122E0CE0101960E941519BE01AA
:1016E0006F5F7F4FCE018B569F4F0E94B818CE017F
:1016F00001960E94E01861ED71E0CE018B569F4F7C
:101700000E94A91821E0C753DF4F488159816A819F
:101710007B81C95CD040CE0101960E941519BE01A3
:101720006F5F7F4FCE018B569F4F0E94B818CE013E
:1017300001960E94E01861ED71E0CE018B569F4F3B
:101740000E94A918CF52DF4F2881C15DD040C054FC
:10175000DF4F9881C05CD040990F990BC054DF4F88
:101760003881C05CD040492F592F692F792F892F9C
:1017700004E00E94493759016A017B018C01910103
:10178000A201B301C4010E9480370E94403520E0CD
:1017900030E040E85BE30E948E32AB01BC0121E007
:1017A000CE0101960E941519BE016F5F7F4FCE01D9
:1017B0008B569F4F0E94B818CE010196C4C665EBA8
:1017C00071E0C5C680E2EAE1F4E0DF011D928A958E
:1017D000E9F762EF72E0CE018B569F4F0E94CA1963
:1017E0008CE10E941923882309F44EC78AE60E94DF
:1017F000192381114CC748C780E2EAE1F4E0DF0118
:101800001D928A95E9F762EF72E0CE0185569F4FEF
:101810000E94CA1980E10E941923882311F40C94B4
:10182000C21589E20E94192381110C94DE140C94D4
:10183000C21580E2EAE1F4E0DF011D928A95E9F742
:1018400062EF72E0CE018B569F4F0E94CA1986E369
:101850000E941923882309F4B8C041E262ED86E3AF
:101860000E94BD2A86E30E94E72A6C0143E262EDF2
:1018700086E30E94BD2A86E30E94E72A7C0168EC89
:1018800071E0CE018B569F4F0E94A9186D2D7727CE
:10189000072E000C880B990B0E942F3220E030E0BD
:1018A0004CE753E40E94FC3320E030E040E853E48E
:1018B0000E948E324B015C01C6019927BC01990F31
:1018C000880B990B0E942F329B01AC01C501B4011A
:1018D0000E94FD332FE632E143E050E40E948E3255
:1018E00020E030E040E85AE30E948E329B01AC01D8
:1018F0000E94FD33AB01BC0122E0C8010E94151912
:10190000B801CE018B569F4F0E94B818C8010E94A3
:10191000E01861ED71E0CE018B569F4F0E94A9182F
:101920006F2D7727072E000C880B990B0E942F3202
:1019300020E030E04CE753E40E94FC3320E030E04C
:1019400040E853E40E948E324B015C01C7019927A5
:101950000197BC01990F880B990B0E942F329B01B4
:10196000AC01C501B4010E94FD332FE632E143E032
:1019700050E40E948E3220E030E040E85AE30E94BA
:101980008E3220E030E048EC52E40E9498342AE0A5
:1019900037ED43EA5CE30E94983420E030E04AE708
:1019A00054E40E948E32AB01BC0120E0C8010E94C9
:1019B0001519B801CE018B569F4F0E94B818C80167
:1019C0000E94E0186FEC71E0C2C563ED71E0BFC525
:1019D00080E2EAE1F4E0DF011D928A95E9F762EF27
:1019E00072E0CE018B569F4F0E94CA1982E40E947A
:1019F0001923882309F471C06091840570918505CD
:101A000080E090E00E942D3220E030E040E251E49E
:101A10000E94983420E030E040EA50E40E942832EE
:101A200087FF58C06FED71E0CE018B569F4F0E942B
:101A3000BF1860918A0570918B0580918C059091FB
:101A40008D052AE0A8010E945C2FF801019000207A
:101A5000E9F73197AF01401B510BB801CE018B560E
:101A60009F4F0E944B1861ED71E0CE018B569F4F46
:101A70000E94A91860917405709175058091760592
:101A8000909177050E942F322AE037ED43E25CE324
:101A90000E948E32AB01BC0120E0C8010E94E51813
:101AA000B801CE018B569F4F0E94B818C8010E9402
:101AB000E0188091740590917505A0917605B0911C
:101AC00077058093130390931403A0931503B093A9
:101AD00016033BC566EE71E076C062EF71E073C03D
:101AE00080E2EAE1F4E0DF011D928A95E9F762EF16
:101AF00072E0CE018B569F4F0E94CA1982E40E9469
:101B00001923882309F45DC06091840570918505CF
:101B100080E090E00E942D3220E030E040E251E48D
:101B20000E94983420E030E040EA50E40E942832DD
:101B300087FF44C06EEF71E0CE018B569F4F0E942D
:101B4000BF18609178057091790580917A05909120
:101B50007B050E942F3225E93FEB46ED53E30E94BF
:101B60008E32AB01BC0125E0C8010E94E518B80126
:101B7000CE018B569F4F0E94B818C8010E94E018F2
:101B800061ED71E0CE018B569F4F0E94A9186091C4
:101B90007C0570917D0580917E0590917F050E9466
:101BA0002F3225E93FEB46ED53E30E948E32AB0125
:101BB000BC0125E0C8010E94E518BEC465E072E0E2
:101BC00002C061E172E0CE018B569F4F0E94BF18A8
:101BD000C3C480E2EAE1F4E0DF011D928A95E9F7EF
:101BE00062EF72E0CE0185569F4F0E94CA1982E4CF
:101BF0000E941923882309F403C16DE172E0CE012C
:101C000085569F4F0E94BF1860918405709185058D
:101C100080E090E00E942D3220E030E040E251E48C
:101C20000E9498340E940A354AE0C8010E94711946
:101C3000B801CE0185569F4F0E94B818C8010E9476
:101C4000E01861ED71E0CE0185569F4F0E94A91802
:101C50004AE060918E05C8010E949D19B801CE012D
:101C600085569F4F0E94B818C8010E94E01861ED88
:101C700071E0CE0185569F4F0E94A918609184059E
:101C80007091850580E090E00E942D3220E030E0E8
:101C900040E251E40E94983420E030E040EA50E411
:101CA0000E94283287FFA4C065EC71E0CE01855602
:101CB0009F4F0E94A91860918005709181058091C5
:101CC000820590918305CB56DF4F19821882C55942
:101CD000D040C956DF4F19821882C759D040C75625
:101CE000DF4F19821882C959D0402AE0A8010E940A
:101CF0005C2FB801CE018B569F4F0E94BF18BE01CA
:101D00006B567F4FCE0185569F4F0E94B818CE016B
:101D10008B569F4F0E94E01860918005709181055D
:101D200080918205909183050E942F3260931B035E
:101D300070931C0380931D0390931E0361ED71E06B
:101D4000CE0185569F4F0E94A9186091860570911B
:101D5000870580E090E00E942D3220E030E048ECE2
:101D600052E40E949834AB01BC0121E0C8010E94FA
:101D70001519B801CE0185569F4F0E94B818C801A9
:101D80000E94E01861ED71E0CE0185569F4F0E94E0
:101D9000A918609188057091890580E090E00E9403
:101DA0002D3220E030E048EC52E40E949834AB0140
:101DB000BC0121E0C8010E941519B801CE01855669
:101DC0009F4F0E94B818C8010E94E0186FEE71E0A2
:101DD000CE0185569F4F0E94A918CE0185569F4F70
:101DE0000E94CF29CE0185569F4F0E94E018C3C3A1
:101DF00064E272E0CE0185569F4F0E94A918E6CF9B
:101E000066E272E0CE0185569F4F0E94BF18E5CF73
:101E100080E2EAE1F4E0DF011D928A95E9F762EFE2
:101E200072E0CE018B569F4F0E94CA1962E372E0A6
:101E3000CE018B569F4F0E94A9186091A305062ED4
:101E4000000C770B4AE0C8010E947119B801CE015D
:101E50008B569F4F0E94B818C8010E94E0186FEC83
:101E600071E0CE018B569F4F0E94A91882E40E9418
:101E70001923882309F4A8C069E372E0CE018B56C8
:101E80009F4F0E94A918609184057091850580E09C
:101E900090E00E942D3220E030E040E251E40E94C8
:101EA000983420E030E040EA50E40E94283287FF76
:101EB00083C020911703309118034091190350916A
:101EC0001A0360911B0370911C0380911D03909174
:101ED0001E030E94FC336B017C01809113039091DF
:101EE0001403A0911503B091160340910F03509174
:101EF000100360911103709112034C015D01841A6B
:101F0000950AA60AB70AC501B40128EE33E040E0FD
:101F100050E00E946233CA01B9010E942F329B0136
:101F2000AC01C701B6010E9498346B017C0160933B
:101F30000B0370930C0380930D0390930E039B018E
:101F4000AC010E94123622E0882339F040E050E0D4
:101F5000BA01C8010E94E51805C0B701A601C80171
:101F60000E941519B801CE018B569F4F0E94B818D8
:101F7000C8010E94E01880911B0390911C03A0915E
:101F80001D03B0911E038093170390931803A09331
:101F90001903B0931A038091130390911403A09135
:101FA0001503B091160380930F0390931003A09331
:101FB0001103B0931203C9C264E272E0CE018B56E2
:101FC0009F4F0E94A918C1C260E472E0C0C280E2C3
:101FD000EAE1F4E0DF011D928A95E9F762EF72E031
:101FE000CE0185569F4F0E94CA198AE50E94192387
:101FF000882309F462C18AE589831F861E86198AAF
:10200000188A80E090E4ACE1B6E48A839B83AC83D9
:10201000BD831E821F82188619861A8A1B8A1C8A13
:102020001D8A1B861A861D861C867E01B5E9EB0E6D
:10203000F11C81E1F701808385EE818382E7828351
:102040008AE883831092AF031092AE031092F803D4
:10205000109219040E94A321CE55DF4F1882C25A54
:10206000D04080E197E2CE55DF4F2881C25AD04060
:102070002F5FCE55DF4F2883C25AD040019799F782
:102080009091AE038091AF03981729F087ED94E00B
:102090000E94C71CF5CFCF55DF4F1882C15AD040E0
:1020A000AE014F555F4F60E2C8010E94DB1B0097F5
:1020B00061F431E020E0CF55DF4F8881C15AD04034
:1020C000813809F430E0832F922F892B09F079C0F1
:1020D00089810E94512A6FEF87ED94E00E94131DC1
:1020E0006701F4E0BF2EBE0CD6016D916D0187ED46
:1020F00094E00E94131DBC10F7CF0E944E2ACD55CC
:10210000DF4F1882C35AD04080E89EE3CD55DF4FA1
:102110002881C35AD0402F5FCD55DF4F2883C35A43
:10212000D040019799F7AE014F555F4F60E0C8016D
:102130000E94DB1BCF55DF4F8881C15AD04080FD04
:1021400040C0AE014F555F4F60E0C8010E94DB1BED
:10215000892BB9F5CF55DF4F8881C15AD04084FF14
:1021600030C089810E94512A84EF90E00E94EC29BE
:102170000E944E2A811125C0AE014F555F4F61E08C
:10218000C8010E94DB1B892BE1F4CF55DF4F88810A
:10219000C15AD0408F788061D82ECF55DF4F8883C9
:1021A000C15AD04089810E94512A61E087ED94E0B4
:1021B0000E94131D6D2D87ED94E00E94131D0E9457
:1021C0004E2AA70160E0C8010E94DB1B892B09F0A1
:1021D00074C0F701808183FF70C089810E94512AF9
:1021E00062E087ED94E00E94131D0E944E2A811147
:1021F00039C064E089810E945B2A8701E4E0DE2E19
:10220000DE0C9091AE038091AF03981751F0D01679
:1022100041F087ED94E00E94C71CD8018D938D0199
:10222000F0CF9091AE038091AF03981729F087ED1E
:1022300094E00E94C71CF5CFD7018C9190E0982FB5
:10224000882711962C911197822B9D878C87129647
:102250008C91129790E0982F882713962C91822BBF
:102260009B878A876CE472E0CE0185569F4F0E945F
:10227000A9186A857B8540E0C7010E944519B7010E
:10228000CE0185569F4F0E94B818C7010E94E018E2
:1022900061ED71E0CE0185569F4F0E94A9186C85B3
:1022A0007D8540E0C7010E944519B701CE018556E2
:1022B0009F4F0E94B818C70187CD63E572E088CDB3
:1022C000CF55DF4F1882C15AD04080E2EAE1F4E0F6
:1022D000DF011D928A95E9F762EF72E0CE01855623
:1022E0009F4F0E94CA1989E30E941923882309F489
:1022F0003FC0CB57DF4F19821882C558D040C9570D
:10230000DF4F19821882C758D040C757DF4F198254
:102310001882C958D040C557DF4F19821882CB5850
:10232000D040C357DF4F19821882CD58D040C157D3
:10233000DF4F19821882CF58D040CF56DF4F198215
:102340001882C159D040CD56DF4F19821882C35927
:10235000D040CF55DF4F1882C15AD040AE014F5503
:102360005F4F6CE9C8010E94AA1B81110EC43ACDCF
:102370006FE572E02DCD80E2EAE1F4E0DF011D922D
:102380008A95E9F786E70E941923882319F0FF242C
:10239000F39401C0F12C80E10E941923882309F4F1
:1023A000DBC489E20E941923882309F4D5C46F2D68
:1023B000626082E4CC52DF4F6883C45DD0400E94EB
:1023C0001923CC52DF4F6881C45DD040882311F0BF
:1023D000646001C06B7F8CE1CC52DF4F6883C45DC9
:1023E000D0400E941923CC52DF4F6881C45DD04099
:1023F000882309F4B4C48AE60E941923CC52DF4F23
:102400006881C45DD040882309F4A9C4686086E36C
:10241000CC52DF4F6883C45DD0400E941923CC5258
:10242000DF4F6881C45DD040882311F0606101C036
:102430006F7E8AE5CC52DF4F6883C45DD0400E9436
:102440001923CC52DF4F6881C45DD040882311F03E
:10245000606201C06F7D81E4CC52DF4F6883C45D50
:10246000D0400E941923CC52DF4F6881C45DD04018
:10247000882311F0606401C06F7B89E3CC52DF4F89
:102480006883C45DD0400E941923CC52DF4F68811D
:10249000C45DD040262F882311F0206801C02F771B
:1024A00062EF72E0CE018B569F4FC952DF4F2883F7
:1024B000C75DD0400E94CA196BE672E0CE018B5610
:1024C0009F4F0E94A9186091A305062E000C770B60
:1024D000CE018B569F4F0E94791861ED71E0CE01BD
:1024E0008B569F4F0E94A9188091BE064AE0B80102
:1024F00090E00E94512FF80101900020E9F73197F8
:10250000AF01401B510BB801CE018B569F4F0E946B
:102510004B1861ED71E0CE018B569F4F0E94A918B8
:10252000C952DF4F2881C75DD040622F220F770B41
:102530004AE0C8010E947119B801CE018B569F4F25
:102540000E94B818C8010E94E0186FEE71E0CE0139
:102550008B569F4F0E94A918CE018B569F4F0E9409
:10256000CF29CE018B569F4F40CC62E772E08AE1C3
:1025700094E00E94BC390E94362914C061E08EE0CC
:102580000E94601A62E370E080E090E00E94CC1A42
:1025900060E08EE00E94601A62E370E080E090E00C
:1025A0000E94CC1A0E94061B60932303709324039D
:1025B00080932503909326030E94061B00911F031E
:1025C0001091200320912103309122030053184FD2
:1025D0002F4F3F4F0617170728073907E8F582E402
:1025E0000E941923882371F16091840570918505FB
:1025F00080E090E00E942D3220E030E040E251E4A3
:102600000E9498340E940A35663071056CF461E0CE
:102610008FE00E94601A62E370E080E090E00E9428
:10262000CC1A60E08FE00CC061E08EE00E94601A7E
:1026300062E370E080E090E00E94CC1A60E08EE0FF
:102640000E94601A0E94061B60931F037093200370
:1026500080932103909322030E94061B653F7140E3
:102660008105910508F47DC38AEA0E94512A80E819
:1026700090E00E94EC290E944E2A68EE73E080E010
:1026800090E00E94CC1A6DC366E772E060CF6FE005
:102690008AE60E94972AF82E6FE08CE10E94972A22
:1026A0002F2D30E0322F2227282B2D33384609F0EA
:1026B00041C04CE760E28CE10E94BD2A40E061E24B
:1026C0008CE10E94BD2A40E062E28CE10E94BD2ABA
:1026D0004CE063E28CE10E94BD2A40E064E28CE1C0
:1026E0000E94BD2A40EC60E18AE60E94BD2A40E0DB
:1026F00061E18AE60E94BD2A40E062E18AE60E942A
:10270000BD2A4AE36EE18AE60E94BD2A40E063E109
:102710008AE60E94BD2A48E36FE18AE60E94BD2A4C
:1027200040EC60E28AE60E94BD2A40E061E28AE66F
:102730000E94BD2A67E18AE60E94972A80FF55C061
:1027400069E28AE60E94972AE82EF12CFE2CEE24FC
:1027500068E28AE60E94972AB701682B072E000CD0
:10276000880B990B0E942F3220E43AED4FE758E393
:102770000E948E326B017C016BE28AE60E94972AEE
:10278000A82EB12CBA2CAA246AE28AE60E94972AC3
:10279000B501682B072E000C880B990B0E942F3275
:1027A00020E43AED4FE758E30E948E324B015C0182
:1027B0006DE28AE60E94972A682E712C762C662498
:1027C0006CE28AE60E94972AB301682B072E000C60
:1027D000880B990B0E942F3220E43AED4FE758E323
:1027E0000E948E322B013C0107C0412C512C32013A
:1027F000530142017301620167E18AE60E94972A50
:1028000081FF18C069E18AE60E94972A68E18AE69A
:102810000E94972A6BE18AE60E94972A6AE18AE67B
:102820000E94972A6DE18AE60E94972A6CE18AE667
:102830000E94972A67E28CE10E94972A83FF18C0C2
:1028400069E28CE10E94972A68E28CE10E94972A53
:102850006BE28CE10E94972A6AE28CE10E94972A3F
:102860006DE28CE10E94972A6CE28CE10E94972A2B
:1028700061EC71E0CE018B569F4F0E94A918A70111
:102880009601C701B6010E948E32CC55DF4F688396
:1028900079838A839B83C45AD040A3019201C301E8
:1028A000B2010E948E322B013C019B01AC01CC5540
:1028B000DF4F688179818A819B81C45AD0400E9410
:1028C000FD330E94CE359B01AC01C501B4010E94CD
:1028D00098340E94693420E030E044E353E40E94DD
:1028E0008E322BED3FE049E450E40E949834AB0176
:1028F000BC0122E0C8010E941519B801CE018B5617
:102900009F4F0E94B818C8010E94E01861ED71E065
:10291000CE018B569F4F0E94A918A5019401C501B5
:10292000B4010E948E324B015C01A30192010E940E
:10293000FD330E94CE359B01AC01C701B6010E9458
:1029400098340E94693420E030E044E353E40E946C
:102950008E322BED3FE049E450E40E949834AB0105
:10296000BC0122E0C8010E941519B801CE018B56A6
:102970009F4F0E94B818C8010E94E01861ED71E0F5
:10298000CE018B569F4F0E94A918A5019401CC55EA
:10299000DF4F688179818A819B81C45AD0400E942F
:1029A000FD33A30192010E94FD330E94CE35AB019D
:1029B000BC0122E0C8010E941519BECD80E18DA3A3
:1029C00089E28EA319861A861B861C861D861E86A2
:1029D0001F86188A198A1A8A1B8A1C8A1F8E18A2B7
:1029E00019A21AA21E8A1D8A188E1F8A1A8E198E83
:1029F0001C8E1B8E80E10E94512A60E087ED94E0DE
:102A00000E94131D60E187ED94E00E94131D60E0B9
:102A100087ED94E00E94131D0E944E2A43E060E877
:102A20008EA10E94BD2A42E061E88EA10E94BD2ACB
:102A3000C8010E94721FC8010E94721F62E872E002
:102A4000CE0185569F4F0E94A918C984DA84EB8471
:102A5000FC8420E030E0A901C701B6010E94BB352B
:102A6000181624F0F7FAF094F7F8F09420E0B70184
:102A7000A601CE018B569F4F0E941519BE016B56C1
:102A80007F4FCE0185569F4F0E94B818CE018B56BE
:102A90009F4F0E94E01861ED71E0CE0185569F4F77
:102AA0000E94A918CD84DE84EF84F88820E030E00D
:102AB000A901C701B6010E94BB35181624F0F7FA28
:102AC000F094F7F8F09420E0B701A601CE018B5600
:102AD0009F4F0E941519BE016B567F4FCE01855640
:102AE0009F4F0E94B818CE018B569F4F0E94E0184E
:102AF00061ED71E0CE0185569F4F0E94A918C988EB
:102B0000DA88EB88FC8820E030E0A901C701B60133
:102B10000E94BB35181624F0F7FAF094F7F8F094F9
:102B200021E0B701A601CE018B569F4F0E941519D7
:102B3000BE016B567F4FCE0185569F4F0E94B8183D
:102B4000CE018B569F4F0E94E01861ED71E0CE01DF
:102B500085569F4F0E94A9184F8D58A169A17AA14F
:102B600020E0CE018B569F4F0E941519BE016B5677
:102B70007F4FCE0185569F4F0E94B818CE018B56CD
:102B80009F4F22C969E872E023C9AE014B565F4FDF
:102B900064E9C8010E94AA1B882309F423C9AE0175
:102BA0004B565F4F65E9C8010E94AA1B882309F4B0
:102BB00019C9AE014B565F4F66E9C8010E94AA1BB6
:102BC000882309F40FC9CB56DF4FA880C559D040E0
:102BD000B12CAE014B565F4F67E9C8010E94AA1B9A
:102BE000882309F4FFC8CB56DF4F8881C559D040F0
:102BF00090E0982F8827A80EB91EAE014B565F4F64
:102C000068E9C8010E94AA1B882309F4EBC8CB56C7
:102C1000DF4FC880C559D040D12CAE014B565F4F15
:102C200069E9C8010E94AA1B882309F4DBC8CB56B6
:102C3000DF4F8881C559D04090E0982F8827C80E73
:102C4000D91EAE014B565F4F6AE9C8010E94AA1B0C
:102C5000882309F4C7C8CB56DF4FE880C559D04058
:102C6000F12CAE014B565F4F6BE9C8010E94AA1BC5
:102C7000882309F4B7C8CB56DF4F2881C559D04007
:102C800030E0322F2227E20EF31E882309F4AAC86F
:102C900065E972E0CE0185569F4F0E94A9184AE06F
:102CA000CF55DF4F6881C15AD040CE018B569F4F20
:102CB0000E949D19BE016B567F4FCE0185569F4FD6
:102CC0000E94B818CE018B569F4F0E94E01861ED0C
:102CD00071E0CE0185569F4F0E94A9184AE0B501C8
:102CE000CE018B569F4F0E944519BE016B567F4FF8
:102CF000CE0185569F4F0E94B818CE018B569F4F2C
:102D00000E94E01861ED71E0CE0185569F4F0E9450
:102D1000A9184AE0B601CE018B569F4F0E94451973
:102D2000BE016B567F4FCE0185569F4F0E94B8184B
:102D3000CE018B569F4F0E94E01861ED71E0CE01ED
:102D400085569F4F0E94A9184AE0B701CE018B56C5
:102D50009F4F0E9445190ACF6F2D6D7F2ACB677F49
:102D600056CBC952DF4F0FB6F894DEBF0FBECDBFB2
:102D7000DF91CF911F910F91FF90EF90DF90CF9057
:102D8000BF90AF909F908F907F906F905F904F908B
:102D90003F902F900895CF92DF92EF92FF920F9382
:102DA0001F93CF93DF936C017A018B01C0E0D0E0D9
:102DB000CE15DF0589F0D8016D918D01D601ED9119
:102DC000FC910190F081E02DC6010995892B11F449
:102DD0007E0102C02196ECCFC701DF91CF911F91F8
:102DE0000F91FF90EF90DF90CF900895FC01538DED
:102DF000448D252F30E0842F90E0821B930B5417D5
:102E000010F0CF96089501970895FC01918D828D61
:102E1000981761F0828DDF01A80FB11D5D968C912E
:102E2000928D9F5F9F73928F90E008958FEF9FEF39
:102E30000895FC01918D828D981731F0828DE80FF5
:102E4000F11D858D90E008958FEF9FEF0895FC01AF
:102E5000918D228D892F90E0805C9F4F821B91097C
:102E60008F73992708958AE394E00E94271721E041
:102E7000892B09F420E0822F0895FC01848DDF0165
:102E8000A80FB11DA35ABF4F2C91848D90E00196DD
:102E90008F739927848FA689B7892C93A089B189CC
:102EA0008C9180648C93938D848D981306C00288D6
:102EB000F389E02D80818F7D80830895EF92FF92CA
:102EC0000F931F93CF93DF93EC0181E0888F9B8D4D
:102ED0008C8D981305C0E889F989808185FD24C00F
:102EE000F62E0B8D10E00F5F1F4F0F731127E02E92
:102EF0008C8DE8120CC00FB607FCFACFE889F9896F
:102F0000808185FFF5CFCE010E943D17F1CF8B8DDB
:102F1000FE01E80FF11DE35AFF4FF0820B8FEA89A3
:102F2000FB898081806207C0EE89FF896083E88920
:102F3000F98980818064808381E090E0DF91CF9186
:102F40001F910F91FF90EF900895CF93DF93EC01C5
:102F5000888D8823C9F0EA89FB89808185FD05C0B9
:102F6000A889B9898C9186FD0FC00FB607FCF5CFF3
:102F7000808185FFF2CFA889B9898C9185FFEDCF3B
:102F8000CE010E943D17E7CFDF91CF91089580E0F9
:102F900090E0892B29F00E94331781110C940000D6
:102FA00008953FB7F8948091480390914903A09108
:102FB0004A03B0914B0326B5A89B05C02F3F19F0DB
:102FC0000196A11DB11D3FBFBA2FA92F982F8827A9
:102FD000820F911DA11DB11DBC01CD0142E0660F04
:102FE000771F881F991F4A95D1F7089508950E9469
:102FF000A3390F931F93CF93DF93EC0188819981BD
:10300000009729F02A813B812617370788F48B0126
:103010006F5F7F4F0E94D938009761F09983888352
:103020001B830A832C813D81232B11F4FC01108228
:1030300081E001C080E0DF91CF911F910F91089551
:10304000EF92FF920F931F93CF93DF93EC017B01DD
:103050008A01BA010E94F9172881398181110DC0B6
:103060002115310519F0C9010E94413819821882D1
:103070001D821C821B821A8206C01D830C83B7012D
:10308000C9010E94BC39CE01DF91CF911F910F91F0
:10309000FF90EF900895EF92FF920F931F93CF93BD
:1030A000DF93FC01248135816115710511F480E005
:1030B00019C041155105A9F07B01EC018A01020FED
:1030C000131FB8010E94F917882389F328813981D9
:1030D0008C819D81B701820F931F0E94BC391D8393
:1030E0000C8381E0DF91CF911F910F91FF90EF90C2
:1030F0000895EF92FF920F931F93CF93DF93CDB775
:10310000DEB728970FB6F894DEBF0FBECDBF7C01A7
:10311000CB014AE08E010F5F1F4FB8010E94512F73
:10312000F80101900020E9F73197AF01401B510BE6
:10313000B801C7010E944B1828960FB6F894DEBF5D
:103140000FBECDBFDF91CF911F910F91FF90EF90F8
:1031500008956115710551F0FB0101900020E9F718
:103160003197AF01461B570B0C944B1880E0089524
:10317000FB0144815581608171810C944B18CF9380
:10318000DF93EC016115710559F0FB0101900020FE
:10319000E9F73197AF01461B570B0E9420180CC06E
:1031A00088819981009711F00E9441381982188214
:1031B0001D821C821B821A82CE01DF91CF9108955D
:1031C000FC01808191810C944138EF92FF920F9322
:1031D0001F93CF93DF93CDB7DEB7A1970FB6F894C7
:1031E000DEBF0FBECDBF7C01CB01BA01F70111825A
:1031F0001082138212821582148242E0420F8E01E5
:103200000F5F1F4F0E94C12EBC01C7010E94BF1853
:10321000A1960FB6F894DEBF0FBECDBFDF91CF9160
:103220001F910F91FF90EF900895EF92FF920F93EF
:103230001F93CF93DF93CDB7DEB7A1970FB6F89466
:10324000DEBF0FBECDBF7C01CB01BA01F7011182F9
:103250001082138212821582148242E0420F8E0184
:103260000F5F1F4F0E94C12EBC01C7010E94BF18F3
:10327000A1960FB6F894DEBF0FBECDBFDF91CF9100
:103280001F910F91FF90EF9008950F931F93CF938D
:10329000DF93CDB7DEB761970FB6F894DEBF0FBEF0
:1032A000CDBF8C01CB01F8011182108213821282F2
:1032B0001582148250E0BE016F5F7F4F0E948D2FF8
:1032C000BE016F5F7F4FC8010E94BF1861960FB6A5
:1032D000F894DEBF0FBECDBFDF91CF911F910F914C
:1032E00008950F931F93CF93DF93CDB7DEB7629707
:1032F0000FB6F894DEBF0FBECDBF8C01CB01F80135
:1033000011821082138212821582148250E0BE0153
:103310006F5F7F4F0E94462FBE016F5F7F4FC801D6
:103320000E94BF1862960FB6F894DEBF0FBECDBFE5
:10333000DF91CF911F910F9108950F931F93CF931A
:10334000DF93CDB7DEB729970FB6F894DEBF0FBE77
:10335000CDBF8C01862FF801118210821382128258
:103360001582148250E0BE016F5F7F4F90E00E9493
:103370008D2FBE016F5F7F4FC8010E94BF18299635
:103380000FB6F894DEBF0FBECDBFDF91CF911F9176
:103390000F910895FC01118210821382128215820E
:1033A00014826115710551F0FB0101900020E9F7CD
:1033B0003197AF01461B570B0C94201808951F92AC
:1033C0000F920FB60F9211242F933F934F935F9359
:1033D0006F937F938F939F93AF93BF93EF93FF93DD
:1033E0008AE394E00E943D17FF91EF91BF91AF9166
:1033F0009F918F917F916F915F914F913F912F910D
:103400000F900FBE0F901F9018951F920F920FB63E
:103410000F9211242F938F939F93EF93FF93E0913B
:103420004A04F0914B048081E0915004F0915104E2
:1034300082FD12C09081809153048F5F8F73209121
:103440005404821751F0E0915304F0E0E65CFB4F26
:10345000958F8093530401C08081FF91EF919F91DC
:103460008F912F910F900FBE0F901F901895833062
:1034700081F028F4813099F08230A1F008958730EE
:10348000A9F08830B9F08430D1F4809180008F7D2C
:1034900003C0809180008F7780938000089584B569
:1034A0008F7702C084B58F7D84BD08958091B00070
:1034B0008F7703C08091B0008F7D8093B000089516
:1034C0001F93CF93DF93282F30E0F901E453FE4F91
:1034D0008491F901E854FE4FD491F901EC55FE4F67
:1034E000C491CC23C9F0162F81110E94371AEC2FFA
:1034F000F0E0EE0FFF1FE656FE4FA591B4918FB797
:10350000F894111105C09C91ED2FE095E92302C0BC
:10351000EC91ED2BEC938FBFDF91CF911F9108952C
:10352000CF93DF9390E0FC01E854FE4F2491FC011F
:10353000EC55FE4F8491882361F190E0880F991F2C
:10354000FC01E057FE4FC591D491FC01E656FE4FB9
:10355000A591B491611109C09FB7F8948881209515
:1035600082238883EC912E230BC0623061F49FB7D5
:10357000F8943881822F809583238883EC912E2BB9
:103580002C939FBF06C08FB7F894E8812E2B288319
:103590008FBFDF91CF9108958F929F92AF92BF928C
:1035A000CF92DF92EF92FF926B017C010E94D117C4
:1035B0004B015C01C114D104E104F104F1F00E945B
:1035C000D117DC01CB0188199909AA09BB09883EEA
:1035D0009340A105B10570F321E0C21AD108E108BA
:1035E000F10888EE880E83E0981EA11CB11CC1145E
:1035F000D104E104F10419F7DDCFFF90EF90DF90E3
:10360000CF90BF90AF909F908F9008952FB7F89470
:103610006091440370914503809146039091470364
:103620002FBF08951F920F920FB60F9211242F9360
:103630003F938F939F93AF93BF9380914403909157
:103640004503A0914603B09147033091430323E023
:10365000230F2D3720F40196A11DB11D05C026E8CA
:10366000230F0296A11DB11D2093430380934403B1
:1036700090934503A0934603B0934703809148037A
:1036800090914903A0914A03B0914B030196A11D6B
:10369000B11D8093480390934903A0934A03B093CC
:1036A0004B03BF91AF919F918F913F912F910F90BD
:1036B0000FBE0F901F9018951F920F920FB60F928A
:1036C00011242F933F934F935F936F937F938F9327
:1036D0009F93AF93BF93EF93FF93E0910201F0911B
:1036E00003010995FF91EF91BF91AF919F918F9148
:1036F0007F916F915F914F913F912F910F900FBEEE
:103700000F901F9018951F920F920FB60F921124D1
:103710002F933F934F935F936F937F938F939F93D9
:10372000AF93BF93EF93FF93E0910001F0910101FC
:103730000995FF91EF91BF91AF919F918F917F91EB
:103740006F915F914F913F912F910F900FBE0F900E
:103750001F9018950F931F93CF93DF931F92CDB7B0
:10376000DEB78A0189E369830E94512A698187ED66
:1037700094E00E94131D0E944E2A882311F080E0DD
:1037800014C061E070E089E390E00E94DD2A90912E
:10379000AE038091AF03981739F087ED94E00E9453
:1037A000C71CF8018083F3CF81E00F90DF91CF91A8
:1037B0001F910F910895AF92BF92DF92EF92FF9207
:1037C0000F931F93CF93DF931F92CDB7DEB78C017A
:1037D0007A01FC01808169830E94512A698187ED09
:1037E00094E00E94131D0E944E2A882321F082E05B
:1037F000A82EB12C02C0A12CB12C61E0F80180816F
:103800000E945B2A9091AE038091AF03981731F02C
:1038100087ED94E00E94C71CD82EF4CFF701D08228
:10382000C5010F90DF91CF911F910F91FF90EF9005
:10383000DF90BF90AF9008950F931F93CF93DF93C6
:103840001F92CDB7DEB78C01FC0184A169830E9471
:10385000512A698187ED94E00E94131D80E00E9447
:10386000F129F80184A162E070E090E00E94DD2A75
:103870009091AE038091AF03981751F087ED94E0DB
:103880000E94C71C182F87ED94E00E94C71C02C03D
:1038900080E010E0212F30E0A901582BCA010F90E1
:1038A000DF91CF911F910F91089585ED8093BC001A
:1038B0008091BC0084FDFCCF1092F60308954091E6
:1038C0007703262F30E0240F311D21323105DCF43F
:1038D0002091F6032430C9F4FC0180E090E08617C3
:1038E00058F4309177032191DC01A95ABC4FA30F02
:1038F000B11D2C930196F3CF80917703680F6093ED
:10390000770380E0089581E0089582E00895E091D2
:103910003103F0913203309729F01092F80310929E
:10392000190409940895AC01E0912F03F09130033C
:103930003097E1F09091AF038091AE039817B0F00B
:1039400090E0292F30E02617370754F4DA01A20F50
:10395000B31F8C91D901A055BC4F8C939F5FF1CFC1
:103960001092AF036093AE03CB01099408950895BC
:10397000E091AF038091AE03E81730F4F0E0E0553A
:10398000FC4F808190E008958FEF9FEF0895909114
:10399000AF038091AE03981750F4E92FF0E0E055A3
:1039A000FC4F208130E09F5F9093AF0302C02FEF68
:1039B0003FEFC90108958091AE0390E02091AF03DD
:1039C000821B91090895CF92DF92EF92FF920F939D
:1039D0001F93CF93DF937C01262F972F8A0180912D
:1039E000F703882391F0C62FD72F6E01C40ED51E82
:1039F000CC15DD0571F06991D701ED91FC91019035
:103A0000F081E02DC7010995F3CF642F822F0E942A
:103A10005F1CC801DF91CF911F910F91FF90EF9034
:103A2000DF90CF900895CF93DF931F92CDB7DEB78D
:103A300069832091F7032223D1F0209119042032C9
:103A400040F021E030E0FC013383228380E090E00D
:103A500015C08091F803E82FF0E0E750FC4F998102
:103A600090838F5F8093F8038093190405C061E011
:103A7000CE0101960E945F1C81E090E00F90DF91E3
:103A8000CF910895089580E090E008958BEF089518
:103A9000CF93DF93EC018A819B81059771F047E01A
:103AA00061E0CE010E94C32840E860E4CE010E949C
:103AB000C32885E090E09B838A838A819B81059758
:103AC000E1F38D89DF91CF910895CF93DF93FC01CE
:103AD000228133812130310549F0EC0140E061E081
:103AE0000E94C32881E090E09B838A8381E0DF917C
:103AF000CF910895CF93DF93FC012281338122304F
:103B0000310549F0EC0141E061E00E94C32882E008
:103B100090E09B838A83DF91CF910895BF92CF92EB
:103B2000DF92EF92FF920F931F93CF93DF934C3F5F
:103B300010F0E12C6FC0142F072FF62EEC01E88156
:103B4000F9810484F585E02D0995CE010E947A1D46
:103B5000E881F9810288F389E02DCE010995E82EEC
:103B6000882339F340E06DE0CE010E94C3284A85E6
:103B700060E0CE010E94C3284B8560E0CE010E9428
:103B8000C3284C8560E0CE010E94C3284D8560E0CB
:103B9000CE010E94C328BFB6F89460E08A8D0E94CF
:103BA000601A888D998DDC01ED91FC910190F08176
:103BB000E02D60E80995CF2CD02E012F015068F040
:103BC000888D998DF60161916F01DC01ED91FC9179
:103BD0000190F081E02D0995F1CF61E08A8D0E947E
:103BE000601ABFBE44E0410F62E2CE010E94C328CA
:103BF0008A819B81039771F043E061E0CE010E94CE
:103C0000C32840E460E4CE010E94C32883E090E032
:103C10009B838A838E2DDF91CF911F910F91FF900F
:103C2000EF90DF90CF90BF900895CF93DF93FC018A
:103C30002281338123303105B9F0EC0182819381F7
:103C4000049771F045E061E0CF010E94C32840E095
:103C500060E4CE010E94C32884E090E09B838A83C5
:103C6000C35EDE4F888101C080E0DF91CF9108956F
:103C7000CF92DF92EF92FF920F931F93CF93DF9338
:103C8000EC017B018A01E881F9810280F381E02D5A
:103C90000995D82E882339F1E114F104E1F00115DA
:103CA0001105C9F0CFB6F8942D8D30E023503109BD
:103CB000F801808190E0821793071CF09D8D94504D
:103CC0009083F801408150E0BE016E5D7F4FC701D7
:103CD0000E94A839CFBE8FB7F894FE01E35EFE4F75
:103CE00010821D8E8FBF8D2DDF91CF911F910F916F
:103CF000FF90EF90DF90CF900895DF92EF92FF92C8
:103D00000F931F93CF93DF93EC0162E10E94FF2892
:103D10002A813B812430310519F4982F907A41F49F
:103D20002A813B8124303105A1F486FD20C011C0D9
:103D30008F8598890196988B8F874FEF62E1CE012E
:103D4000DF91CF911F910F91FF90EF90DF900C9436
:103D5000C3282A813B812330310509F09AC083FFB3
:103D600098C08B899C8901969C8B8B8B9CC063E14E
:103D7000CE010E94FF28F82E60E1CE010E94FF28AC
:103D8000482F6DE0CE010E94C328DFB6F89460E0B2
:103D90008A8D0E94601A888D998DDC01ED91FC91CD
:103DA0000190F081E02D60E009958E01025E1F4FC9
:103DB000EF2CE00EE01671F0888D998DDC01ED910D
:103DC000FC910190F081E02D60E00995F80181936C
:103DD0008F01F0CF61E08A8D0E94601ADFBEFD8EF8
:103DE0004FEF62E1CE010E94C32869E1CE010E943B
:103DF000FF288E01015E1E4F87FD8D5F859585959D
:103E0000D8018C936AE1CE010E94FF288E87F801C9
:103E100090818E8597FF03C0890F8E8709C0F0E1DE
:103E20008F02C00111246FE070E00E943C366E8763
:103E3000FE01E25EFE4F8081882319F08E858D5948
:103E400002C08E85845A8E878D8DFE01E35EFE4F03
:103E5000843090F08E8D8E838F8D8F8388A188879C
:103E600089A189878D8181110CC09E818C819817D1
:103E700041F08E818F3F29F08081882309F45DCF46
:103E800012C089899A8901969A8B898B81E08083F7
:103E9000F3CF2A813B812530310509F04ECF82FFD7
:103EA0004CCF81708D8BCE010E947A1D46CF8091C0
:103EB000550390915603009711F00C947D1E0895C0
:103EC0008091530390915403009711F00C947D1E40
:103ED00008958091510390915203009711F00C9432
:103EE0007D1E08954F925F926F927F928F929F9264
:103EF000AF92BF92CF92DF92EF92FF920F931F93F8
:103F0000CF93DF93CDB7DEB728970FB6F894DEBF17
:103F10000FBECDBF8C0165E8FC0185A10E94972AE8
:103F2000F80183A364E885A10E94972AF80182A37F
:103F300093A1682F70E0792B80E090E00E942D32F1
:103F400020E030E040E850E40E948E32F801668FB5
:103F5000778F80A391A367E0C8010E941C1CF80121
:103F6000958B848B69E0C8010E941C1CF801978B1B
:103F7000868B6AE0C8010E941C1CF801918F808F1B
:103F80006BE0C8010E941C1C7C01F801938F828F9A
:103F90006689778980E090E00E942D3269837A8378
:103FA0008B839C83F801608D718D80E090E00E948E
:103FB0002D324B015C01B70180E090E00E942D3270
:103FC0006B017C01F8016489758980E090E00E94B2
:103FD0002D326D837E838F8398872BE734E14EE00B
:103FE00050E4C501B4010E948E322B013C0121E74F
:103FF0003DE34AEA5FE3C701B6010E948E329B01AE
:10400000AC01C301B2010E94FC339B01AC016D8184
:104010007E818F8198850E94FC332B013C01F80141
:1040200060877187828793872DEC3CEC4CE350E4EA
:10403000C501B4010E948E324B015C0122E538EBD0
:104040004EED5FE3C701B6010E948E329B01AC01C9
:10405000C501B4010E94FC339B01AC0169817A81E6
:104060008B819C810E94FC336B017C01F801648789
:1040700075878687978727E33FE74FEB5AE3C301AE
:10408000B2010E948E324B015C012BEE3DEC49E205
:104090005BE3C701B6010E948E329B01AC01C501F2
:1040A000B4010E94FD3320E030E040E05FE30E9475
:1040B0008E32F801608B718B828B938B28960FB6B2
:1040C000F894DEBF0FBECDBFDF91CF911F910F914E
:1040D000FF90EF90DF90CF90BF90AF909F908F9028
:1040E0007F906F905F904F9008951F920F920FB640
:1040F0000F9211242F933F934F935F936F937F936E
:104100008F939F93AF93BF93EF93FF938091B900E9
:10411000887F803609F49CC068F5883209F45BC05A
:1041200090F4803109F454C038F4882309F4F6C0BF
:10413000883009F44DC0F6C0883109F44CC0803293
:1041400009F45DC0EFC0803409F468C048F48033DE
:1041500009F455C0883309F0E5C08093F403D8C052
:10416000803509F44FC0883509F45DC0883409F002
:10417000D9C0D6C0883909F4C7C0A8F4883709F473
:1041800067C038F4883609F463C0803709F460C02A
:10419000C9C0883809F4B8C0803909F45FC08038D4
:1041A00009F0C0C05BC0803B09F486C038F4803A97
:1041B00009F466C0883A09F47FC0B4C0803C09F4B1
:1041C000A7C0883C09F4A4C0883B09F48AC0AAC0EF
:1041D0008091D10310C09091F3038091F20398175E
:1041E00070F5E091F30381E08E0F8093F303F0E02C
:1041F000EE52FC4F80818093BB0085EC86C080939B
:10420000F4038EC0E091F30381E08E0F8093F303FB
:104210008091BB00F0E0EE52FC4F80839091F3035D
:104220008091F2036EC0E091F30381E08E0F8093E2
:10423000F3038091BB00F0E0EE52FC4F808380914D
:10424000F50381116DC081E08093D00384EA61C0E1
:1042500083E08093F60310929903CFCF8091990366
:10426000803208F051C0E091990381E08E0F809375
:1042700099038091BB00F0E0E758FC4F8083BDCFED
:1042800085EC8093BC001092F603809199038032F4
:1042900030F4E0919903F0E0E758FC4F1082609110
:1042A000990370E0E0912B03F0912C0389E793E0F0
:1042B00009951092990336C084E08093F60310921A
:1042C000780310927703E0912D03F0912E03099566
:1042D00080917703811105C081E08093770310926C
:1042E0005703E091780381E08E0F80937803F0E02C
:1042F000E95AFC4F80818093BB00909178038091B4
:104300007703981708F479CF85E88093BC000AC03A
:1043100085EC8093BC001092F60304C01092F40365
:104320000E94551CFF91EF91BF91AF919F918F918A
:104330007F916F915F914F913F912F910F900FBEA1
:104340000F901F9018951092F60381E08093F5036B
:104350001092D00361E082E10E94601A61E083E183
:104360000E94601AE9EBF0E080818E7F808380817B
:104370008D7F808388E48093B80085E48093BC00BF
:1043800008950F931F93CF938C01C62F68312CF49F
:1043900065305CF0653114F409C0C7E147E06DE4B5
:1043A000C8010E94C328C35006C0C5E044E06DE4C4
:1043B000C8010E94C3284BEF4C0F406869E0C80158
:1043C000CF911F910F910C94C3288F929F92AF921F
:1043D000BF92CF92DF92EF92FF921F93CF93DF9322
:1043E000EC014A015B0120E034E244E759E4C501F5
:1043F000B4010E948E3220E034E244E752E40E948D
:1044000098340E9411356B017C01A701662777273C
:1044100066E0CE010E94C32877276F2D5E2D4D2DBB
:1044200067E0CE010E94C3284C2D68E0CE010E94B7
:10443000C328C25EDE4F11E020E030EC42E454E4D9
:10444000C501B4010E94BB3587FD10E0188381E0EF
:10445000DF91CF911F91FF90EF90DF90CF90BF90B1
:10446000AF909F908F900895EF92FF920F931F93BC
:10447000CF93DF9300D01F92CDB7DEB78C010E949F
:104480002526E82E811102C0E12C82C0F801838D1F
:10449000823029F08330C1F7FF24F39401C0F12C5E
:1044A00040E861E0C8010E94C3286AE070E080E053
:1044B00090E00E94CC1A61E0C8010E94FF28803879
:1044C00019F760E0F801838D0E94901AF801848D3D
:1044D0008F3F49F4809150038430B0F691E0980FFB
:1044E00090935003848FF801948DE92FF0E0EE0F44
:1044F000FF1FEF5AFC4F11830083911103C069E63F
:104500007FE10AC0913019F460E67FE105C0923086
:1045100009F0BACF67E57FE18F2D0E94042B40E0C0
:104520006EE0C8010E94C32840E06FE0C8010E940D
:10453000C328C8010E947A1D43E050E060EE71E09C
:10454000CE0101960E943D2F49816DE1C8010E9474
:10455000C3284A816EE1C8010E94C3284B8166E2EC
:10456000C8010E94C32840E060E2C8010E94C3283D
:1045700048E061E2C8010E94C32840E050E069EDD4
:1045800073E4C8010E94E5216DE0C8010E94C121C9
:104590008E2D0F900F900F90DF91CF911F910F9163
:1045A000FF90EF90089581E080939C030895CF934E
:1045B000DF9380919B03813041F460919A0387EDF2
:1045C00094E0DF91CF910C94131D823079F5CAE10C
:1045D000D4E084E0CA33D80739F08991082E000C62
:1045E000990B0E94EC29F5CF80E090E00E94EC2925
:1045F000CAE1D4E0FE0101900020E9F73197AF0154
:104600004A515440BE018AE394E00E94CB1642E036
:1046100050E060EF72E08AE394E00E94CB1680E203
:10462000FE0111928A95E9F710929A03DF91CF91DA
:1046300008950E94512A0E944E2A91E0811190E033
:10464000892F0895FF920F931F93CF93DF93CDB7D8
:10465000DEB72D970FB6F894DEBF0FBECDBF109119
:104660009C03113009F0BEC110929C039091AE03DF
:104670008091AF03981709F4AAC187ED94E00E94D6
:10468000C71C2091AE039091AF03893401F529171F
:10469000C1F087ED94E00E94C71C182F9091AE03E3
:1046A0008091AF03981729F087ED94E00E94C71C12
:1046B000F5CF153231F41092420381E080933F032D
:1046C00086C181E08093420310923F0380C1803510
:1046D00009F07CC010E09091AE038091AF03981771
:1046E00059F087ED94E00E94C71CE12FF0E0E356FB
:1046F000FC4F80831F5FEFCF45E06DE973E085E9F4
:1047000095E00E948E1D85E995E00E94F42585E0E4
:10471000EDE9F3E0DF011D928A95E9F70AE114E083
:1047200080E2F82EF8012F2D11922A95E9F768EB17
:104730007BE085E995E00E94E326882391F160E023
:104740008FE00E94601AF0920A034AE053E0B80139
:1047500085E995E00E94381E882309F438C161E09C
:104760008FE00E94601AF80101900020E9F731976C
:10477000EA51F440E0930A0381E080939A03809128
:10478000A305082E000C990B90930903809308034E
:1047900062E370E080E090E00E94CC1A60E08FE07D
:1047A00012C086E09FEF909309038093080361E0B5
:1047B0008EE00E94601A62E370E080E090E00E9468
:1047C000CC1A60E08EE00E94601A01C1813519F4B4
:1047D00010939B03FCC0823521F482E080939B03FD
:1047E000F6C0833509F055C0291721F087ED94E014
:1047F0000E94C71C809108039091090388339F4F42
:1048000054F463EF72E08AE194E00E94BC3981E0E5
:1048100080939A03DCC062EF72E0CE0107960E949B
:10482000CA1968EF72E0CE0107960E94A91860913C
:10483000080370910903CE0107960E94791861ED73
:1048400071E0CE0107960E94A9184AE060913303F7
:10485000CE0101960E949D19BE016F5F7F4FCE0170
:1048600007960E94B818CE0101960E94E0186FEEDC
:1048700071E0CE0107960E94A918CE0107960E940A
:10488000CF2981E080939A03CE0107960E94E01819
:104890009EC0843509F049C0291771F087ED94E076
:1048A0000E94C71C809334038093330387ED94E008
:1048B0000E94C71C80933503009133031091350388
:1048C000011103C0112309F482C0F090340380E089
:1048D00090E00E944C33081729F0602F80E090E0B0
:1048E0000E94543381E090E00E944C33F81629F086
:1048F0006F2D81E090E00E94543382E090E00E94AE
:104900004C33181729F0612F82E090E00E94543355
:1049100080913503909134032091330320939905BE
:104920009093A00580939F0552C0853509F04FC034
:10493000291771F087ED94E00E94C71C8093BF0691
:104940008093BE0687ED94E00E94C71C8093C0064A
:1049500080913303811104C0809135038823A1F134
:104960001091C0060091BF066091BE0683E090E002
:104970006D870E944C336D85681721F083E090E0CD
:104980000E94543384E090E00E944C33081729F0D1
:10499000602F84E090E00E94543385E090E00E9414
:1049A0004C33181729F0612F85E090E00E945433B2
:1049B000809135039091340320913303209399051E
:1049C0009093A00580939F0581E080933E03909192
:1049D000AE038091AF03981729F087ED94E00E9411
:1049E000C71CF5CF2D960FB6F894DEBF0FBECDBF16
:1049F000DF91CF911F910F91FF90089561E08EE0BC
:104A00000E94601A64E670E080E090E00E94CC1A98
:104A100060E08EE00E94601A64E670E080E090E062
:104A20000E94CC1A61E08EE00E94601A64E670E099
:104A300080E090E00E94CC1A60E08EE00E94601A54
:104A400064E670E080E090E00E94CC1A61E08EE0C5
:104A50000E94601A64E670E080E090E00E94CC1A48
:104A600060E08EE00E94601A64E670E080E090E012
:104A70000C94CC1AFC01862F909141039923B9F133
:104A8000A0914A04B0914B0492E09C93A0914604FB
:104A9000B09147041C92A0914804B091490490E160
:104AA0009C9310925204A0914E04B0914F0496E052
:104AB0009C93A0914C04B0914D049C9190619C9367
:104AC000A0914C04B0914D049C9198609C93A0914E
:104AD0004C04B0914D049C9190689C93A0914C041F
:104AE000B0914D049C919F7D9C93109241039091B5
:104AF0004003992391F0448155816081718188231D
:104B000041F08AE394E00E94CB1642E050E060EF6F
:104B100072E08AE394E00C94CB1608959FB7F89462
:104B20008091A303882319F081508093A30380917F
:104B3000A303811105C08CB58F7B8CBD1092A2039D
:104B40009FBF08958CB58F778CBD08958CB5806814
:104B50008CBD08956EBD00000DB407FEFDCF8EB56F
:104B600008959CB5282F23709C7F922B9CBD2DB55A
:104B700082FB992790F9822F8E7F892B8DBD089516
:104B8000FC01738362830895FC0177836683089533
:104B9000FC017583648308950895089580E0089565
:104BA000FC0181850895FC0180850895FC018781C1
:104BB0000895FC0186810895FC014095958549235F
:104BC000642B65870895FC0164870895FC01638761
:104BD0000895FC0162870895FC0164830895FC0137
:104BE0006583089580E00895FC012281338123309C
:104BF0003105D1F381E00895CF93DF93EC01E88193
:104C0000F9810280F381E02DCE0109958823B9F363
:104C1000DF91CF91089581E00895CF93DF93FC0158
:104C2000228133812230310569F0EC01668D848D5B
:104C30000E94601A60E08B8D0E94601A82E090E012
:104C40009B838A83DF91CF910895CF93DF93EC010B
:104C5000888D998DDC01ED91FC910680F781E02D26
:104C6000099561E08A8D0E94901A61E08A8D0E9408
:104C7000601A64E670E080E090E00E94CC1A81E067
:104C8000DF91CF910895CF93DF93FC012681378187
:104C90002115310549F02130310541F0223031052F
:104CA00039F02330310531F020E005C024E003C0A5
:104CB00028E001C02CE09CB5937F922B9CBD8481A1
:104CC0009581019709F04AC08CB580628CBD8281C4
:104CD000938101978430910528F4FC01E25FFE4F37
:104CE000C08101C0C1E08C2F0E94B125DFB7F894CC
:104CF0008091A303811127C0EEEAF1E09491E2ECE8
:104D0000F1E02491E92FF0E0EE0FFF1FE057FE4F96
:104D1000A591B491EC91E22321F461E08AE00E9434
:104D2000601A61E08AE00E94901A8CB580618CBDA7
:104D30008CB580648CBD61E08DE00E94901A61E0CA
:104D40008BE00E94901A8091A3038F5F8093A3034E
:104D5000DFBF8C2FDF91CF910C94B1259CB59F7D47
:104D60009CBDB5CF8F929F92AF92BF92CF92DF92B0
:104D7000EF92FF92CF93DF93EC016B010E94061B31
:104D80004B015C01E12CF12C0E94061BDC01CB01E4
:104D900088199909AA09BB098C159D05AE05BF059F
:104DA00030F48A819B81039779F381E001C080E030
:104DB000DF91CF91FF90EF90DF90CF90BF90AF90B9
:104DC0009F908F9008958F929F92AF92BF92CF92B3
:104DD000DF92EF92FF92CF93DF93EC016B010E9481
:104DE000061B4B015C01E12CF12C0E94061BDC012F
:104DF000CB0188199909AA09BB098C159D05AE0537
:104E0000BF0550F4E881F9810280F381E02DCE01E5
:104E10000995882351F301C080E0DF91CF91FF9085
:104E2000EF90DF90CF90BF90AF909F908F900895BC
:104E30008F929F92AF92BF92CF92DF92EF92FF92AA
:104E4000CF93DF93FC0126893789232B11F481E06E
:104E500038C0EC010E94061B6B017C0189E0882EA2
:104E6000912CA12CB12CE881F9810488F589E02DE1
:104E7000CE010995882359F30E94061BAB01BC01A2
:104E80004C195D096E097F098E899F89A0E0B0E009
:104E900084179507A607B70798F00E942F2FA50142
:104EA00094010E9462339B01AC012F5F3F4F4F4F33
:104EB0005F4FA4E6B0E00E9481330E94CC1AD3CFAA
:104EC00080E0DF91CF91FF90EF90DF90CF90BF9087
:104ED000AF909F908F9008951F920F920FB60F92F0
:104EE0001124CF92DF92EF92FF920F931F932F9393
:104EF0003F934F935F936F937F938F939F93AF9362
:104F0000BF93CF93DF93EF93FF93C091A403D0910E
:104F1000A5038A819B81049709F0CAC02A8D30E0DD
:104F2000F901E453FE4F8491F901E854FE4F0491D6
:104F3000F901EC55FE4F1491112379F081110E9473
:104F4000371AE12FF0E0EE0FFF1FE451FE4FA5915D
:104F5000B491EC91E02381E009F480E081709D8DB3
:104F6000892719F09AA19F5F9AA399A1891771F0D7
:104F70009BA1903518F02DE130E002C02BE030E02D
:104F80009BA1290F311D2BA389A303C08BA18C5E8C
:104F90008BA38BA1803A08F4DDC08DA19EA19695CC
:104FA00087959EA38DA38AA1853028F08DA19EA10F
:104FB00098609EA38DA38BA1805A8BA31AA28CA16B
:104FC000882309F468C08FA18F5F8FA38C3008F409
:104FD000C1C08DA19EA1982F9F73892F869586951C
:104FE000887028E0280F821749F0E82FF0E0EE5E85
:104FF000FE4F3081931719F08F5FF5CF80E020E1ED
:10500000829FC00111242DA13EA196E036952795DF
:105010009A95E1F7422F3695279536952795287072
:1050200038E0320F231749F0E22FF0E0EE5EFE4F3A
:105030005081451719F02F5FF5CF20E0822BAE018C
:1050400044595F4FFA019081DE01A559BF4F992362
:10505000B1F0FA01908121E0290F20839E01290FF0
:10506000311DF90180A7FA0190818C91981788F081
:105070001CA281E08F8FCE010E940D260AC08C9366
:105080009C91973008F460C09C91943408F05CC007
:10509000E0CF1FA25FC08DA19EA188339B4009F085
:1050A00059C081E08CA31FA2C459DF4F188252C09F
:1050B0008A819B81039709F04DC08E0101591F4FD2
:1050C000F801808191E0980F9083811137C07E01B3
:1050D000FDE6EF0EF11CF7018081EF56FF4F908146
:1050E000891748F0CE010E940D268B899C89019674
:1050F0009C8B8B8B23C0FE01E80FF11DE059FF4F05
:10510000608170E06E01FEE6CF0ED11CF601808159
:1051100091E0980F908302C0759567958A95E2F7A4
:10512000617077278B8D0E94601AF601808186302E
:1051300028F01082F70180818F5F8083F8018081E1
:10514000883040F0108206C01CA28F859889019695
:10515000988B8F87FF91EF91DF91CF91BF91AF91A6
:105160009F918F917F916F915F914F913F912F917F
:105170001F910F91FF90EF90DF90CF900F900FBE97
:105180000F901F901895EF92FF920F931F93CF935C
:10519000DF931F92CDB7DEB77C01162F0FB7F894BF
:1051A00060E0DC015A968C9149830E94601AF701F5
:1051B000808D918DDC01ED91FC91612F60680190F3
:1051C000F081E02D0995182FF701808D918DDC017C
:1051D000ED91FC910190F081E02D4981642F0995BA
:1051E00061E0F701828D0E94601A0FBF812F0F903E
:1051F000DF91CF911F910F91FF90EF9008950F9342
:105200001F93CF93DF93EC01162F0FB7F89460E054
:105210008A8D0E94601A888D998DDC01ED91FC9138
:10522000612F6F770190F081E02D0995888D998D20
:10523000DC01ED91FC910190F081E02D60E0099599
:10524000182F61E08A8D0E94601A0FBF812FDF91B5
:10525000CF911F910F910895CF93DF93EB010E949F
:105260004C338883CE01DF91CF910895CF93DF93A4
:1052700000D000D000D0CDB7DEB764E670E080E0AB
:1052800090E00E94CC1A40E26AE174E085E995E082
:105290000E948E1D85E995E00E94F4256FEF72E073
:1052A000CE0101960E94CA1960E0CE0101960E94CB
:1052B0003A25CE0101960E94E0186AE174E0CE0121
:1052C00001960E94CA1961E0CE0101960E943A251A
:1052D000CE0101960E94E01862EF72E0CE010196C5
:1052E0000E94CA1961E0CE0101960E943A25CE01C2
:1052F00001960E94E01885E0EDE9F3E0DF011D92E0
:105300008A95E9F726960FB6F894DEBF0FBECDBF9B
:10531000DF91CF9108959091F6039111FCCF91E028
:105320009093F6039093F5032FEF2093F4031092DC
:10533000F303260F2093F2039093D1039091D103AE
:10534000880F892B8093D1038091D003813061F441
:105350001092D0038091D1038093BB008091BC0058
:1053600083FDF8CF85EC01C085EE8093BC00809171
:10537000F6038130E1F38091F303861710F4609116
:10538000F303A2EDB3E020EB33E0F9018E2F821B93
:10539000861718F48D918193F9CF862F0895CF93B6
:1053A000DF93FC01C481D581209719F410921A046F
:1053B00010C0CF31D10510F0CFE1D0E0FC01608109
:1053C0007181AE018AE194E00E94D139C65EDB4F63
:1053D0001882DF91CF910895682F87ED94E00C94A7
:1053E000131D382F209119049091B506213208F031
:1053F00049C08091F6038111FCCF42E04093F6034F
:105400003093F5033FEF3093F4031092F3032093AE
:10541000F203A9EFB3E042ED53E0FA013E2F341B53
:10542000321718F43D913193F9CF1092D1032091A6
:10543000D103990F922B9093D1039091D003913087
:1054400061F41092D0039091D1039093BB0090919E
:10545000BC0093FDF8CF95EC01C095EE9093BC0095
:105460009091F6039230E1F39091F4039F3F79F02D
:105470008091F403803241F08091F403803331F065
:1054800084E005C081E003C082E001C083E01092A7
:10549000F803109219041092F703089581E00C9418
:1054A000F12991E09093F7038093B5061092F803E9
:1054B000109219040895613208F060E20E948B296D
:1054C0001092AF038093AE0308951F93CF93DF93A1
:1054D0001F92CDB7DEB7182F69830E94512A6981C8
:1054E00087ED94E00E94131D80E00E94F12962E0A4
:1054F000812F0E945B2A9091AE038091AF03981791
:1055000079F087ED94E00E94C71C182F87ED94E096
:105510000E94C71C20E030E0312F822B932B02C069
:1055200080E090E00F90DF91CF911F9108951F933D
:10553000CF93DF931F92CDB7DEB7182F69830E94F8
:10554000512A698187ED94E00E94131D0E944E2A22
:1055500061E0812F0E945B2A9091AE038091AF039E
:10556000981729F087ED94E00E94C71C01C080E0E5
:105570000F90DF91CF911F910895CF93DF9300D0CB
:10558000CDB7DEB74A8369830E94512A698187EDCE
:1055900094E00E94131D4A81642F87ED94E00E94DD
:1055A000131D0F900F90DF91CF910C944E2A0E9403
:1055B000652A9827892798270895613208F060E2C4
:1055C0000E948B291092AF038093AE030895CF936E
:1055D00062E00E945B2A9091AE038091AF0398171E
:1055E00079F087ED94E00E94C71CC82F87ED94E006
:1055F0000E94C71C20E030E03C2F822B932B02C07E
:1056000080E090E0CF9108958230B8F4E82FF0E088
:10561000EE0FFF1FE050FF4F71836083813039F040
:1056200080916900836080936900E89A0895809171
:1056300069008C6080936900E99A0895CF92DF92A7
:10564000EF92FF920F931F93CF93DF93062FEC01FE
:1056500010E060E070E0CB01E991EE2311F1EE3251
:10566000F1F020ED2E0F2A30E0F4AAE0B0E09B012B
:10567000AC010E9481330E2E000CFF0BAF01405392
:1056800051096A01550FEE08FF086C0D7D1D8E1D36
:105690009F1D112309F31F5F0117F0F602C011E0EF
:1056A000DBCFDF91CF911F910F91FF90EF90DF90B3
:1056B000CF90089580335CF08A3314F480530895BA
:1056C00081342CF0873414F487530895089580E0D2
:1056D0000895CF92DF92EF92FF921F93CF93DF93C3
:1056E000162FEC0160E070E0CB01E99120ED2E0F68
:1056F0002A30C0F41123B1F0AAE0B0E09B01AC0164
:105700000E9481330E2E000CFF0BAF014053510954
:105710006A01550FEE08FF086C0D7D1D8E1D9F1D43
:105720001150E3CFDF91CF911F91FF90EF90DF9069
:10573000CF900895FF920F931F93CF93DF9300D0E4
:1057400000D000D0CDB7DEB785E995E00E943422C5
:10575000811124C061EB72E0CE0101960E94CA194A
:1057600061E0CE0101960E943A25CE0101960E9489
:10577000E01861E08EE00E94601A64E670E080E06C
:1057800090E00E94CC1A60E08EE00E94601A64E60D
:1057900070E080E090E00E94CC1AEBCF40E050EC4B
:1057A00064E674E485E995E00E94E52167E185E916
:1057B00095E00E94C1211091C0060091BF06F090B3
:1057C000BE066F2D70E083E090E00E942C29602FD0
:1057D00070E084E090E00E942C29612F70E085E069
:1057E00090E00E942C290E94FE24F09299050093DB
:1057F000A00510939F056DEC72E0CE0101960E940A
:10580000CA1961E0CE0101960E943A25CE010196A7
:105810000E94E0186FED72E0CE0101960E94CA1955
:1058200060E0CE0101960E943A25CE0101960E94C9
:10583000E0184AE06091BE06CE0101960E949D19D3
:1058400061E0CE0101960E943A25CE0101960E94A8
:10585000E01826960FB6F894DEBF0FBECDBFDF91DD
:10586000CF911F910F91FF900895CF93DF9300D0B8
:1058700000D000D0CDB7DEB7789484B5826084BD07
:1058800084B5816084BD85B5826085BD85B5816044
:1058900085BD80916E00816080936E0010928100C2
:1058A000809181008260809381008091810081607D
:1058B000809381008091800081608093800080913E
:1058C000B10084608093B1008091B00081608093CA
:1058D000B00080917A00846080937A0080917A0091
:1058E000826080937A0080917A00816080937A0050
:1058F00080917A00806880937A001092C10061E004
:105900008EE00E94901A61E08FE00E94901A61E0A0
:1059100080E10E94901A88EF8093BA0087E89CE1AA
:1059200090932E0380932D0383E99CE190932C03A5
:1059300080932B031092AF031092AE031092F803E2
:10594000109219040E94A32183ED92E290933003F8
:1059500080932F0387ED92E290933203809331037B
:105960000FB6F894A89580916000886180936000DC
:10597000109260000FBE99E288E10FB6F894A895E6
:10598000809360000FBE909360000E94061B60939E
:105990004C0370934D0380934E0390934F0361E04B
:1059A0008EE00E94601A11E00E9422230E94061BD2
:1059B000C0904C03D0904D03E0904E03F0904F0305
:1059C000DC01CB018C199D09AE09BF09893C9F4AB6
:1059D000A105B10530F01093420360E08EE00E9413
:1059E000601A80914203882319F181E0809341037A
:1059F000809340030E949A2B0E94061B60E08EE079
:105A00000E94601A61E080E10E94601A6CE972E015
:105A1000CE0101960E94CA1961E0CE0101960E9452
:105A20003A25CE0101960E94E0180E942601FDCF82
:105A300080913F03882309F4DFC081E08093410314
:105A40008093400360E08EE00E94601A61E08FE086
:105A50000E94601A67EA72E0CE0101960E94CA199C
:105A600061E0CE0101960E943A25CE0101960E9486
:105A7000E01885E995E00E943422811124C061EB91
:105A800072E0CE0101960E94CA1961E0CE01019632
:105A90000E943A25CE0101960E94E01861E08EE056
:105AA0000E94601A64E670E080E090E00E94CC1AE8
:105AB00060E08EE00E94601A64E670E080E090E0B2
:105AC0000E94CC1AEBCF40E050EC64E674E485E928
:105AD00095E00E94E52167E185E995E00E94C121FA
