:100000000C9463000C948B000C948B000C948B006C
:100010000C948B000C948B000C948B000C948B0034
:100020000C948B000C948B000C948B000C948B0024
:100030000C948B000C948B000C948B000C948B0014
:100040000C94D4040C948B000C94A2040C947C04A7
:100050000C948B000C948B000C948B000C948B00F4
:100060000C948B000C948B000000000024002700EF
:100070002A0000000000250028002B0000000000DE
:1000800023002600290004040404040404040202DA
:100090000202020203030303030301020408102007
:1000A0004080010204081020010204081020000012
:1000B0000008000201000003040700000000000027
:1000C00000001E05E00811241FBECFEFD8E0DEBF00
:1000D000CDBF23E0A4E9B1E001C01D92A832B20770
:1000E000E1F711E0A0E0B1E0EEE6F7E102C0059033
:1000F0000D92A439B107D9F710E0C2E6D0E004C0F0
:100100002197FE010E94B209C136D107C9F70E94AA
:1001100052050C94AA0B0C940000AF92BF92CF92A0
:10012000DF92EF92FF920F931F93CF93DF936C01B7
:100130007B018B01040F151FEB015E01AE18BF0898
:10014000C017D10759F06991D601ED91FC9101904A
:10015000F081E02DC6010995892B79F7C501DF9162
:10016000CF911F910F91FF90EF90DF90CF90BF90B4
:10017000AF900895FC01538D448D252F30E0842FDE
:1001800090E0821B930B541710F0CF9608950197BF
:100190000895FC01918D828D981761F0A28DAE0FAC
:1001A000BF2FB11D5D968C91928D9F5F9F73928F33
:1001B00090E008958FEF9FEF0895FC01918D828D5F
:1001C000981731F0828DE80FF11D858D90E008952C
:1001D0008FEF9FEF0895FC01918D228D892F90E084
:1001E000805C9F4F821B91098F73992708958BE73D
:1001F00092E00E94EB0021E0892B09F420E0822F9D
:100200000895FC01A48DA80FB92FB11DA35ABF4FAB
:100210002C91848D90E001968F739927848FA68905
:10022000B7892C93A089B1898C91837080648C9359
:10023000938D848D981306C00288F389E02D808108
:100240008F7D80830895EF92FF920F931F93CF933A
:10025000DF93EC0181E0888F9B8D8C8D98131AC001
:10026000E889F989808185FF15C09FB7F894EE89E8
:10027000FF896083E889F989808183708064808345
:100280009FBF81E090E0DF91CF911F910F91FF9090
:10029000EF900895F62E0B8D10E00F5F1F4F0F7338
:1002A0001127E02E8C8D8E110CC00FB607FCFACFF3
:1002B000E889F989808185FFF5CFCE010E9401018F
:1002C000F1CFEB8DEC0FFD2FF11DE35AFF4FF082C4
:1002D0009FB7F8940B8FEA89FB8980818062CFCF2A
:1002E000CF93DF93EC01888D8823B9F0AA89BB896D
:1002F000E889F9898C9185FD03C0808186FD0DC058
:100300000FB607FCF7CF8C9185FFF2CF808185FF78
:10031000EDCFCE010E940101E9CFDF91CF91089589
:10032000833081F028F4813099F08230A9F008956B
:100330008730A9F08830C9F08430B1F48091800012
:100340008F7D03C0809180008F7780938000089517
:1003500084B58F7784BD089584B58F7DFBCF809160
:10036000B0008F778093B00008958091B0008F7DAA
:10037000F9CFCF93DF93282F30E0F901E255FF4FFB
:100380008491F901E656FF4FD491F901EA57FF4FE6
:10039000C491CC23A1F081110E949001EC2FF0E0D8
:1003A000EE0FFF1FE458FF4FA591B491EC91ED23A0
:1003B00081E090E009F480E0DF91CF91089580E042
:1003C00090E0FACF1F93CF93DF93282F30E0F9010D
:1003D000E255FF4F8491F901E656FF4FD491F901A0
:1003E000EA57FF4FC491CC23A9F0162F81110E9428
:1003F0009001EC2FF0E0EE0FFF1FEE58FF4FA5919C
:10040000B4918FB7F894EC91111108C0D095DE2308
:10041000DC938FBFDF91CF911F910895DE2BF8CF32
:10042000CF93DF9390E0FC01E656FF4F24918A576B
:100430009F4FFC0184918823D1F090E0880F991F91
:10044000FC01E859FF4FA591B491FC01EE58FF4F14
:10045000C591D49161110EC09FB7F8948C91E22F91
:10046000E0958E238C932881E223E8839FBFDF9160
:10047000CF9108958FB7F894EC91E22BEC938FBF56
:10048000F6CF3FB7F8948091950190919601A09195
:100490009701B091980126B5A89B05C02F3F19F090
:1004A0000196A11DB11D3FBFBA2FA92F982F8827F4
:1004B000BC01CD01620F711D811D911D42E0660FCF
:1004C000771F881F991F4A95D1F708958F929F92A1
:1004D000AF92BF92CF92DF92EF92FF924B015C01FD
:1004E0000E9441026B017C010E9441026C197D094E
:1004F0008E099F09683E734081059105A8F321E0AC
:10050000821A9108A108B10888EEC80E83E0D81EAF
:10051000E11CF11C81149104A104B10429F7FF909E
:10052000EF90DF90CF90BF90AF909F908F90089505
:10053000E3E1F2E0128A1686138A118A178613867F
:1005400011861086108A128616820895CF93DF9343
:10055000C3E1D2E06A8982E10E94E2016E858EE009
:100560000E94E2016B8983E10E94E201698981E1D5
:100570000E94E2016F858FE00E94E2016B858BE0B3
:100580000E94E201698589E00E94E201688588E0B5
:100590000E94E201688980E10E94E2016A858AE0A6
:1005A0000E94E2016E8186E0DF91CF910C94E2011E
:1005B000FC0101900020E9F73197AF01481B590B6E
:1005C000BC018BE792E00C948D008F929F92AF92CA
:1005D000BF92CF92DF92EF92FF920F931F93CF9330
:1005E000DF93CDB7DEB7A1970FB6F894DEBF0FBE8D
:1005F000CDBF6B017C01F7FE41C06DE28BE792E05D
:100600000E9423018C0122273327A9012C193D09BF
:100610004E095F0919A2CE0181967C019AE0892ECC
:10062000912CA12CB12CCA01B901A50194010E9401
:100630009009605DF70162937F0121153105410545
:10064000510589F790E080E0309719F0CF010E94C2
:10065000D802800F911FA1960FB6F894DEBF0FBE8F
:10066000CDBFDF91CF911F910F91FF90EF90DF9061
:10067000CF90BF90AF909F908F900895AC019B0159
:1006800019A28E010F5D1F4F8AE0C82ED12CE12CDC
:10069000F12CCA01B901A70196010E949009605D81
:1006A000F80162938F01211531054105510589F744
:1006B00090E080E0309779F2CF010E94D802CBCF52
:1006C000CF93DF93EC0188819981009711F00E940C
:1006D000540A198218821D821C821B821A82DF91A1
:1006E000CF910895FC0180819181009711F00C94C5
:1006F000540A08950F931F93CF93DF93EC018881E1
:100700009981009759F02A813B812617370730F0ED
:1007100081E0DF91CF911F910F9108958B016F5F61
:100720007F4F0E94DD0A009759F0998388831B83CD
:100730000A832C813D81232B59F7FC011082E8CFDD
:1007400080E0E7CFEF92FF920F931F93CF93DF9359
:100750006115710541F480E0DF91CF911F910F91F8
:10076000FF90EF90089541155105B1F07B01EC0128
:100770000C811D81040F151FB8010E947A03882384
:1007800051F3288139818C819D81B701820F931F9C
:100790000E94A30B1D830C8381E0DECFCF93DF93F8
:1007A000EC01FB0101900020E9F73197AF01461BF6
:1007B000570B0E94A203811103C0CE010E94600367
:1007C000CE01DF91CF910895EF92FF920F931F9387
:1007D000CF93DF93EC017B018A01BA010E947A0377
:1007E00081110BC0CE010E946003CE01DF91CF9139
:1007F0001F910F91FF90EF9008951D830C83B70117
:10080000888199810E94A30BF0CFFC011182108294
:10081000138212821582148250E040E065E571E097
:100820000C94E403FB0101900020E9F73197AF013C
:10083000461B570B0C94E403CF92DF92EF92FF928A
:100840000F931F93CF93DF9300D0CDB7DEB78BE725
:1008500092E00E94EB00892BF1F18BE792E00E947D
:10086000C900182F89831A8241E050E0BE016F5FF2
:100870007F4F88E193E00E94A2031A3041F78091F4
:10088000180390911903C12CD12C7601009719F00F
:100890000E94E8086B01860165E571E088E193E05C
:1008A0000E9412040630110594F2C6010C970297BB
:1008B00070F20730110559F261E08C2D0E94E201BF
:1008C00068EE73E080E090E00E94660260E08C2DAC
:1008D0000E94E201BCCF0F900F90DF91CF911F914A
:1008E0000F91FF90EF90DF90CF9008950E94F70056
:1008F00081110C941C0408951F920F920FB60F9251
:1009000011242F933F934F935F936F937F938F9314
:100910009F93AF93BF93EF93FF938BE792E00E9477
:100920000101FF91EF91BF91AF919F918F917F91C5
:100930006F915F914F913F912F910F900FBE0F904C
:100940001F9018951F920F920FB60F9211242F939C
:100950008F939F93EF93FF93E0918B02F0918C0222
:100960008081E0919102F091920282FD1BC0908102
:10097000809194028F5F8F7320919502821741F0CE
:10098000E0919402F0E0E558FD4F958F809394023A
:10099000FF91EF919F918F912F910F900FBE0F902C
:1009A0001F9018958081F4CF1F920F920FB60F926F
:1009B00011242F933F938F939F93AF93BF93809175
:1009C000990190919A01A0919B01B0919C01309165
:1009D000940123E0230F2D3758F50196A11DB11D79
:1009E000209394018093990190939A01A0939B0185
:1009F000B0939C018091950190919601A0919701EF
:100A0000B09198010196A11DB11D8093950190931D
:100A10009601A0939701B0939801BF91AF919F91D8
:100A20008F913F912F910F900FBE0F901F901895AF
:100A300026E8230F0296A11DB11DD2CFEBE7F2E00D
:100A40001382128288EE93E0A0E0B0E08483958365
:100A5000A683B78380E191E09183808385EC90E069
:100A60009587848784EC90E09787868780EC90E078
:100A7000918B808B81EC90E0938B828B82EC90E069
:100A8000958B848B86EC90E0978B868B118E128EE3
:100A9000138E148E8EE193E00E94050488E193E0AA
:100AA0000C940504CF93DF93CDB7DEB76E970FB6E6
:100AB000F894DEBF0FBECDBF789484B5826084BD4C
:100AC00084B5816084BD85B5826085BD85B5816052
:100AD00085BD80916E00816080936E0010928100D0
:100AE000809181008260809381008091810081608B
:100AF000809381008091800081608093800080914C
:100B0000B10084608093B1008091B00081608093D7
:100B1000B00080917A00846080937A0080917A009E
:100B2000826080937A0080917A00816080937A005D
:100B300080917A00806880937A001092C100E091E1
:100B40008B02F0918C0282E08083E0918702F09129
:100B500088021082E0918902F0918A028FEC8083F2
:100B600010929302E0918F02F091900286E08083D0
:100B7000E0918D02F0918E02808180618083E0910E
:100B80008D02F0918E02808188608083E0918D02D9
:100B9000F0918E02808180688083E0918D02F091D7
:100BA0008E0280818F7D808368EC70E08EE193E01F
:100BB0000E947A0360E083E00E94100260E08CE013
:100BC0000E94100261E084E00E94100261E087E070
:100BD0000E94100261E08DE00E94100261E086E058
:100BE0000E94100218E061E0812F0E94100260E074
:100BF000812F0E94E2011F5F1C30A9F71EE061E017
:100C0000812F0E94100260E0812F0E94E2011F5F8D
:100C10001631A9F761E087E00E94E201A3E1B2E0AA
:100C2000EFEAF1E011921D9222E0E331F207D1F7F1
:100C30000E9498020E94A6028EE191E00E94D802D2
:100C400083E591E00E94D8028BE090E09093A001B0
:100C500080939F0187E090E09093A2018093A1018F
:100C600086E090E09093A4018093A30185E090E05A
:100C70009093A6018093A50183E090E09093A80152
:100C80008093A70184E090E09093AA018093A9014A
:100C900088E090E09093AC018093AB011092AE019C
:100CA0001092AD010FE911E0C12CD12C760186E53F
:100CB00091E00E94D802C701B6010E94E50284E6D5
:100CC00091E00E94D802F801619171918F01072E85
:100CD000000C880B990B0E94E50288E691E00E94C7
:100CE000D80283E591E00E94D802FFEFCF1ADF0A15
:100CF000EF0AFF0A28E0C216D104E104F104B9F6B4
:100D0000EE24EA94FE2C0E94980260E087E00E94A4
:100D1000E20165E070E080E090E00E94660261E040
:100D200087E00E94E20165E070E080E090E00E94D0
:100D300066020FEA11E061E084E00E94E20161E0F6
:100D400070E080E090E00E94660260E084E00E9433
:100D5000E20161E070E080E090E00E94660283E0E2
:100D60000E94B90121E0892B09F420E0F8012193C8
:100D70008F018CE00E94B90121E0892B09F420E069
:100D8000F8012787F1E00F3B1F07A9F62FB7F8946A
:100D90008091990190919A01A0919B01B0919C0141
:100DA0002FBF409177025091780260917902709143
:100DB0007A02841B950BA60BB70B893E9340A105C5
:100DC000B10508F4B4C02FB7F894809199019091BF
:100DD0009A01A0919B01B0919C012FBF8093770253
:100DE00090937802A0937902B0937A0265E571E05E
:100DF0008EE193E00E941204CE0149960E94050400
:100E00008FEAA82E81E0B82E10E000E0F501819174
:100E10005F016CE771E0811102C065E571E0CE0110
:100E200049960E9412041C8A1B8A1E8A1D8A188EEB
:100E30001F8A4AE0BE016F5F7F4FC8010E940F0901
:100E4000BE016F5F7F4FCE0143960E9412041A824B
:100E500019821C821B821E821D8260911E0370916A
:100E60001F036115710541F0409122035091230346
:100E7000CE0101960E94E40366E671E0CE01019680
:100E80000E94CE036C014F89588D6B897C890E942A
:100E9000A203811103C0C6010E94600360E871E0F3
:100EA000C6010E94CE036C014D8D5E8D698D7A8DD9
:100EB0000E94A203811103C0C6010E94600362E880
:100EC00071E0C6010E94CE03F3E08E319F0769F006
:100ED000FC01608171816115710509F499C044813B
:100EE00055818EE193E00E94E403CE0101960E94B9
:100EF0007203CE0143960E9472030F5F1F4F0032B0
:100F0000110509F083CF4091220350912303609192
:100F10001E0370911F038BE792E00E948D0083E512
:100F200091E00E94D802CE0149960E9472031A8273
:100F300019821C821B821E821D8250E040E065E502
:100F400071E0CE0101960E94E403EFE9F1E08FEF3A
:100F50009FEF21913191D901A155BE4F4C91411183
:100F6000C90121E0EF3AF207A1F7909301018093C4
:100F700000018F3F980741F410929E0110929D014D
:100F800090930501809304012091040130910501A3
:100F90008217930771F020919D0130919E012F5F80
:100FA0003F4F243031050CF038C030939E01209320
:100FB0009D01CE0101960E947203009104011091DF
:100FC000050117FD0FC084E891E00E94D802B80126
:100FD000012E000C880B990B0E94E50283E591E03D
:100FE0000E94D802F8013196ED30F10560F5E55028
:100FF000F84F0C94B209D808C108230823085108F7
:101000006908450839082D089A0823082308160896
:101010008EE193E00E94600368CF10929E011092CF
:101020009D019093050180930401C3CF81E08093DB
:101030001D02809325028091C601882321F0109221
:10104000250210921D020E94A6020E94F70088232A
:1010500009F459CE0E941C0456CE81E080931D02F3
:10106000809321028091C701882369F310922102A5
:10107000E8CF81E080931D02809326028091C40115
:10108000882309F310922602DCCF81E080931D02B1
:10109000809324028091C5018823A9F21092240232
:1010A000D0CF81E080931D0280932202F092030151
:1010B000E09202018091C101882329F2109222025C
:1010C00010921D0210920301109202011092000270
:1010D000BACF8091BF01882381F0809100028111F5
:1010E0000CC0809102019091030121E02093000245
:1010F00001969093030180930201809102019091E7
:101100000301069728F481E080931D0280931E025C
:1011100080910002882321F010921D0210921E027D
:101120008091CC01882309F48ECF10921D02109279
:101130001E0289CF81E080931D0280931902809363
:101140001C02109223029091C001911180936502BC
:1011500080916502882329F081E080932302109218
:1011600019028091C901882309F46DCF10921D02E4
:101170001092190210921C02109223021092650222
:1011800062CF81E080931D028093190280931B023D
:1011900010922302109265028091C801882309F4FD
:1011A00052CF10921D021092190210921B024BCFC7
:1011B000809102019091030106970CF487CF43CFF1
:1011C00088E193E00E9472038EE193E00C94720335
:1011D0001F93FC0199278827BC01E89411911032D4
:1011E000E9F3193010F01E30C8F31B3251F01D32F4
:1011F00049F4689406C00E941A09610F711D811D8F
:10120000911D119110531A30B0F33EF490958095D2
:10121000709561957F4F8F4F9F4F1F910895BB270A
:101220004A3031F4992322F4BDE2909581959F4F85
:101230000C943009592F482F372F262F660F771F10
:10124000881F991F660F771F881F991F620F731FD2
:10125000841F951F660F771F881F991F0895BB274E
:10126000FB015527AA27880F991FAA1FA41710F062
:10127000A41B83955051B9F7A05DAA3308F0A95D6E
:10128000A193009779F7B111B1931192CB010C940E
:101290004909DC01FC01672F71917723E1F732974F
:1012A00004C07C916D9370836291AE17BF07C8F341
:1012B00008952F923F924F925F926F927F928F92FA
:1012C0009F92AF92BF92CF92DF92EF92FF920F93D5
:1012D0001F93CF93DF93CDB7DEB7CA1BDB0B0FB6DF
:1012E000F894DEBF0FBECDBF09942A88398848889C
:1012F0005F846E847D848C849B84AA84B984C88432
:10130000DF80EE80FD800C811B81AA81B981CE0F28
:10131000D11D0FB6F894DEBF0FBECDBFED0108950D
:10132000A1E21A2EAA1BBB1BFD010DC0AA1FBB1FE9
:10133000EE1FFF1FA217B307E407F50720F0A21B5B
:10134000B30BE40BF50B661F771F881F991F1A94C8
:1013500069F760957095809590959B01AC01BD01F2
:10136000CF010895EE0FFF1F0590F491E02D099431
:101370000F931F93CF93DF938230910510F482E097
:1013800090E0E0912603F091270330E020E0B0E008
:10139000A0E0309799F42115310509F44AC0281BC3
:1013A000390B24303105D8F58A819B81611571058F
:1013B00089F1FB0193838283FE0111C04081518139
:1013C0000281138148175907E0F04817590799F42B
:1013D000109761F012960C93129713961C93329605
:1013E000CF01DF91CF911F910F91089500932603B4
:1013F00010932703F4CF2115310551F042175307FD
:1014000038F0A901DB019A01BD01DF01F801C1CF6C
:10141000EF01F9CF9093270380932603CDCFFE01F0
:10142000E20FF31F8193919322503109398328836E
:10143000D7CF2091240330912503232B41F4209111
:101440000801309109013093250320932403209152
:101450000601309107012115310541F42DB73EB742
:1014600040910A0150910B01241B350BE09124039C
:10147000F0912503E217F307A0F42E1B3F0B28176A
:10148000390778F0AC014E5F5F4F2417350748F0FD
:101490004E0F5F1F50932503409324038193919334
:1014A0009FCFF0E0E0E09CCFCF93DF930097E9F08F
:1014B000FC01329713821282A0912603B091270378
:1014C000ED0130E020E01097A1F420813181820FFE
:1014D000931F20912403309125032817390709F021
:1014E00061C0F0932503E0932403DF91CF91089529
:1014F000EA01CE17DF07E8F54A815B819E014115BD
:101500005105B1F7E901FB83EA8349915991C40F71
:10151000D51FEC17FD0761F4808191810296840F3D
:10152000951FE90199838883828193819B838A83B4
:10153000F0E0E0E012968D919C9113970097B9F539
:101540002D913C911197CD010296820F931F20910E
:101550002403309125032817390739F6309751F5C0
:101560001092270310922603B0932503A09324031F
:10157000BCCFD383C28340815181840F951FC8178C
:10158000D90761F44E5F5F4F88819981480F591FD9
:10159000518340838A819B81938382832115310506
:1015A00009F0B0CFF0932703E09326039ECFFD010F
:1015B000DC01C0CF13821282D7CFB0E0A0E0E3EE0F
:1015C000FAE00C945B098C01009751F4CB010E9466
:1015D000B8098C01C801CDB7DEB7E0E10C947709FA
:1015E000FC01E60FF71F9C0122503109E217F307B7
:1015F00008F49DC0D901CD91DC911197C617D7078A
:1016000098F0C530D10530F3CE01049786179707BF
:1016100008F3C61BD70B2297C193D1936D937C938C
:10162000CF010E94540AD6CF5B01AC1ABD0A4C010F
:101630008C0E9D1EA0912603B0912703512C412CA6
:10164000F12CE12C109731F5809124039091250322
:101650008815990509F05CC04616570608F058C071
:101660008091060190910701009741F48DB79EB7D4
:1016700040910A0150910B01841B950BE817F90763
:1016800008F055C0F0932503E0932403F90171831A
:101690006083A0CF8D919C91119712966C901297B8
:1016A00013967C901397A815B90559F56C0142E083
:1016B000C40ED11CCA14DB0420F1AC014A195B0929
:1016C000DA011296159780F062827382518340830B
:1016D000D9016D937C93E114F10471F0D701139655
:1016E000FC93EE93129776CF22968C0F9D1FF901F3
:1016F00091838083F301EFCFF0932703E0932603D8
:1017000069CF4816590608F42C017D01D3019ACF00
:10171000CB010E94B8097C01009749F0AE01B801E5
:101720000E949A0BC8010E94540A870153CF10E00F
:1017300000E050CFFB01DC0102C001900D9241504E
:101740005040D8F70895FB01DC0101900D92002074
:10175000E1F7089510E0C2E6D0E004C0FE010E9467
:0E176000B2092196C336D107C9F7F894FFCF1E
:10176E00FFFFFFFFFFFF00002803800000000000C6
:10177E0023018D00BA007001EB00C900DD004F425D
:10178E0045524C414E44455220434F4E54524F4CBD
:10179E0020554E4954204E414E4F20534F465457DC
:1017AE004152452076342E33206175746F7368650F
:1017BE006172000D0A006A6F79737469636B207031
:1017CE00696E2000203A20002D2D2D2D2D2D2D2D32
:1017DE002D2D2D2D2D2D2D2D2D2D2D002B2B2B008B
:1017EE0028002900687964726F5F636F6D6D616E9A
:0417FE006420000063
:00000001FF
